:020000040800F2
:1000000000000220A9040008F9040008F90400080F
:10001000F9040008F9040008F904000800000000D1
:10002000000000000000000000000000F9040008CB
:10003000F904000800000000450300082529000815
:10004000F9040008F9040008F9040008F90400089C
:10005000F9040008F9040008F9040008F90400088C
:10006000F9040008F9040008F9040008F90400087C
:10007000F9040008F9040008F9040008F90400086C
:10008000F9040008F9040008F9040008F90400085C
:10009000F9040008F9040008F9040008F90400084C
:1000A000F9040008F9040008F9040008F90400083C
:1000B000F9040008F9040008F9040008F90400082C
:1000C000F9040008F9040008F9040008F90400081C
:1000D000F9040008F9040008F9040008F90400080C
:1000E000F9040008F904000800000000F904000801
:1000F000F9040008F9040008F9040008F9040008EC
:10010000F9040008F9040008F9040008F9040008DB
:10011000F9040008F9040008F9040008F9040008CB
:10012000F9040008F9040008F9040008F9040008BB
:10013000F9040008F9040008F9040008F9040008AB
:1001400000000000000000000000000000000000AF
:10015000F9040008F9040008F9040008F90400088B
:10016000F9040008F9040008F9040008F90400087B
:10017000F9040008F9040008F90400080000000070
:10018000F9040008F9040008F9040008F90400085B
:10019000F9040008F9040008F9040008F90400084B
:1001A000F9040008F9040008F9040008F90400083B
:1001B000F9040008F9040008F9040008F90400082B
:1001C000F9040008F9040008F9040008F90400081B
:1001D000F9040008F9040008F9040008F90400080B
:1001E000F9040008F9040008F9040008F9040008FB
:1001F000F9040008F9040008F9040008F9040008EB
:10020000F9040008F9040008F9040008F9040008DA
:10021000F9040008F9040008F9040008F9040008CA
:10022000F9040008F9040008F904000800000000BF
:10023000F9040008F904000800000000F9040008AF
:10024000F9040008F9040008F9040008F90400089A
:10025000F9040008F9040008F9040008F90400088A
:10026000F9040008F9040008F9040008F90400087A
:10027000F9040008F9040008F9040008000000006F
:10028000F904000800000000F90400080000000064
:0802900000000000F904000861
:10029800EFF3098121B120ED108A3C490A6810600A
:1002A8007047B0EC108A3A490A681060704772B615
:1002B8004EF62250CEF2000040F2FF01C0F20001DB
:1002C8000170002080F3098841F2EC50C2F200006E
:1002D800016881F3088802F0F1FA41F26410C2F271
:1002E800000041F26511C2F200010A78027041F281
:1002F8003440C2F2000041F23841C2F200010A68FB
:100308000260106880F30988EFF3148040F002005F
:1003180080F31488BFF36F8FBDE8F04F0FBCBDE8C2
:10032800005006BC62B608471A484FF08051016079
:10033800704718484FF080510160704772B6EFF36C
:10034800098020E9F04F41F23445C2F200052968DE
:100358000860744602F0B2FA41F26410C2F200007A
:1003680041F26511C2F200010A78027041F2384187
:10037800C2F200010A682A6044F0040E1068B0E86E
:10038800F04F80F3098862B67047000034140020EB
:100398003814002004ED00E072B6704762B670476A
:1003A800EFF3108072B6704780F31088704730BF43
:1003B800704720BF7047B0FA80F0704790FAA0F0FD
:1003C800B0FA80F0704790FAA0F070470348044BE9
:1003D800834202D0034B03B118477047080000203E
:1003E80008000020000000000548064B1B1AD90F22
:1003F80001EBA301491002D0034B03B11847704722
:1004080008000020080000200000000010B5064C7D
:10041800237843B9FFF7DAFF044B13B10448AFF36D
:1004280000800123237010BD00040020000000009C
:100438004C3B000808B5054B1BB105490548AFF30F
:100448000080BDE80840FFF7CFBF00BF00000000F4
:10045800040400204C3B000870B50D4E0D4D761B72
:10046800B61006D0002455F8043B01349847A6423C
:10047800F9D1094E094D761B03F064FBB61006D07E
:10048800002455F8043B01349847A642F9D170BDC1
:100498000C3C00080C3C0008103C00080C3C000810
:1004A800DFF834D0002103E00C4B5B584350043193
:1004B8000B480C4B42189A42F6D30B4A02E0002331
:1004C80042F8043B094B9A42F9D302F06FFAFFF75E
:1004D800C3FF03F0A3FA704700000220143C000891
:1004E800000000200800002000040020D42800207C
:1004F800FEE7000008B5034B00221A6002F004FB77
:1005080008BD00BF1C04002008B5FFF7F3FF08BDB5
:10051800014B1860704700BF1C040020014B0022EB
:100528001A607047200400204FF0000C6346BCF1AD
:10053800030F04D841EA03230CF1010CF7E710F08C
:10054800030C20D010B404E000F8011B013A0CF1B0
:10055800010CBCF1030F8CBF002401242AB1002C2C
:10056800F2D102E040F8043B043A032AFAD802E048
:1005780000F8011B013A002AFAD15DF8044B7047D4
:1005880040F8043B043A032AFAD802E000F8011BB9
:10059800013A002AFAD170477047000008B5FFF702
:1005A800FFFE044A136801331360FFF7FDFE02F0F3
:1005B80071F8F4E778130020054B1B78012B06D15E
:1005C800044B1B78F92B02D80133024A1370704789
:1005D80068130020591100201E4B1B78012B00D0F6
:1005E800704710B5FFF7DCFE04461B4B1B781BB3A6
:1005F800013BDBB2184A13700BBB184B1B780BBBC3
:1006080000F0AAFD164A1070164A52F83030164A01
:100618001360164A1268934217D0D3F88820013223
:10062800C3F88820124A136801331360FFF781FE6C
:100638002046FFF7B9FE10BDFFF7B6FEFBE7FFF750
:10064800B3FEF8E7FFF7B0FEF5E72046FFF7ACFE8C
:10065800F1E700BF6813002059110020691300203A
:10066800651100206811002038140020341400207F
:100678003C140020184B1B78012B05D1174B1B7815
:1006880013B9174B1B7803B1704710B5FFF788FEF5
:10069800044600F061FD134B1870134B53F83030CB
:1006A800124A1360124A1268934210D0D3F8882075
:1006B8000132C3F888200F4A136801331360FFF72B
:1006C80033FE2046FFF770FEBFF36F8F10BD204644
:1006D800FFF76AFEFAE700BF6813002059110020EF
:1006E80069130020651100206811002038140020CB
:1006F800341400203C14002010B50446104B1B781D
:100708003BB9104B1B78012B07D045F68963038052
:1007180002E046F66253038010BD0B4B1B78F92BA1
:1007280003D945F209230380F6E7FFF739FE064AA5
:10073800137801331370FFF737FE00232380EBE7AC
:1007480059110020681300206913002010B50446D1
:10075800154B1B783BB9154B1B78012B07D045F679
:100768008963038002E046F66553038010BD104B91
:100778001B781BB946F664530380F7E7FFF710FEB2
:100788000B4A1378013BDBB2137033B9FFF70CFE49
:10079800FFF770FF00232380E8E7FFF705FE46F622
:1007A80063532380E2E700BF59110020681300203B
:1007B8006913002010B50446164B1B78012B03D093
:1007C80045F68B63038010BD134B1B88042B06D999
:1007D800124B1B783BB145F68A630380F3E745F675
:1007E8008C630380EFE700F0B7FC0D4B18700D4BDE
:1007F80018700D4B53F830300C4A13600C4A1360D4
:10080800064B01221A70FFF752FD43F69923238005
:10081800D9E700BF581100204014002068130020B9
:100828006511002064110020681100203814002090
:100838003414002000B58BB008900B2307930021D7
:10084800069105910491094B1B680393084B1B689B
:100858000293084B1B6801933F2300930B46064AFB
:10086800064801F079F90BB05DF804FB743B000809
:10087800703B00086C3B0008A5050008AC10002080
:10088800002303604360704791F833C0036833B1B5
:1008980053B193F83320624506D85B6AF8E74B6298
:1008A8008B620160416070473BB19A6A5AB14B62F2
:1008B8009A6A8A625162996270474B6243688B6296
:1008C8005962416070474B628A6299620160704761
:1008D800C36A63B15A68526A52B1826A5AB1416AAC
:1008E80071B151628A62002343628362C3627047B6
:1008F8005A609A60F7E7426A002191625A60F2E70B
:1009080051629A60EFE770B5C56A6B685B6A43B17C
:1009180004462E1DFFF7DCFFE56221463046FFF74F
:10092800B3FF70BD002307E0054A002142F83310E9
:1009380002EBC302516001333F2BF5D9704700BF6A
:100948006811002010B5044601F0ACFE0023344ABB
:100958001370344A1370344A1370344A1360344A9B
:100968001360344A1370344A1370344A1370344B8A
:100978001B68344AA2FB0323DB08334A1360334B5A
:100988001A6842B1324B1B6803E0013B002142F870
:10099800041B002BF9D100232E4A13602E4A136042
:1009A8002E4A13602E4A13602E4A13602E4A136093
:1009B8002E4A13602E4A137000F0C2FBFFF7B2FFF5
:1009C800204600F0A1F9238803B110BD204600F0AD
:1009D8009FF92388002BF8D1204601F05FF823887F
:1009E800002BF2D12046FFF725FF2388002BECD1FE
:1009F800204601F053FB2388002BE6D1204600F067
:100A080005FE2388002BE0D1204601F07BFD2388DA
:100A1800002BDAD1FFF7C0FD164B01221A70D4E77C
:100A28005911002068130020691300203414002095
:100A38003814002064110020651100207013002074
:100A4800943B0008CDCCCCCC6C130020643B000850
:100A5800683B0008D8150020DC150020E0150020B0
:100A6800D0150020D4150020E4150020E81500203A
:100A7800421400205811002090F833300B4A52F8E5
:100A880033204AB1C26000220261084A52F833108A
:100A9800086142F833007047C2600261034A42F8B5
:100AA800330002EBC3025060704700BF681100209A
:100AB80090F833200B4B53F832304BB10023C3600E
:100AC800084B03EBC2035A680261D0605860704754
:100AD800C3600361034B43F8320003EBC203586061
:100AE800704700BF6811002010B5044690F8330025
:100AF80000F044FB94F83320054B1B789A4203D04E
:100B08002046FFF7B9FF10BD2046FFF7D1FFFAE7EF
:100B18006411002010B50C4691F83210032917D93A
:100B28000639C9B2012915D8A265A4F85C3010B1FC
:100B38002046FFF7CDFE94F83230072B25D004234A
:100B480084F83230002384F8313084F8303001E002
:100B5800022900D210BDA265A4F85C3010B120466D
:100B6800FFF7B6FE94F83230032B0AD02046FFF781
:100B7800BBFF002384F8323084F8313084F83030F9
:100B8800E8E7204601F04AFBF0E7204601F046FB83
:100B9800D5E703684268934215D0D9688A420AD0DB
:100BA80010B400240C61DC601A61D36001604360FA
:100BB8005DF8044B70471A610021D9601161D36058
:100BC800026043607047704710B5044690F83310D0
:100BD8000269C36832B1D360B3B11A6100232361DB
:100BE800E36010BD2BB100221A610A4A42F8313085
:100BF800F4E7084B43F8312003EBC1035A6090F83F
:100C0800330000F0CBFAE9E7024B03EBC1035A606B
:100C1800E4E700BF6811002038B51E4B1B78012B94
:100C280000D038BD0446FFF7BBFB05462368E3B197
:100C3800194A93421CD05A6D0AB1013A5A655B6D44
:100C4800CBB9226863689A4219D0144B1B78D3B980
:100C58002046FFF79EFF23681A6DC2B9104A126832
:100C68005A652846FFF7A0FBDBE7FFF79DFBD8E7AF
:100C7800FFF79AFBD5E72846FFF796FBD1E728460A
:100C8800FFF792FBCDE72846FFF78EFBC9E75A65C9
:100C9800E7E700BF70130020AC10002069130020A4
:100CA8006C13002010B5044631B9022380F83230A5
:100CB8002046FFF789FF10BD0A460146034801F0A8
:100CC80037FA032384F83230F2E700BF4C140020CF
:100CD80010B504460B4B186880F83010002380F8D4
:100CE80031301146FFF7DEFF34B1064B1968CC628C
:100CF800201DFFF7C9FD10BD024B1B680022DA62F8
:100D0800F9E700BF34140020002303807047000077
:100D180070B4164B1D685DB1154B1E8866B105F1A0
:100D28000C0106F1FF3C1FFA8CFC2B4600220FE059
:100D380045F21E73038016E045F21D73038012E02E
:100D4800196000245C601C810C330C31013292B2B2
:100D58006245F5D300221A605A601A81054B1D605E
:100D68009E80DA80028070BC704700BF783B000824
:100D78007C3B00085C11002003464089C0B110B4D8
:100D880019680C4A14680C60596811605989B2F8DE
:100D980006C0ACEB010CA2F806C0B2F804C061446E
:100DA800918000225A811A605A605DF8044B70479E
:100DB800704700BF5C11002001810023438103605C
:100DC80043607047F8B516460E4B1B7893B9044636
:100DD800A0B1FFF7E5FA07460B4B23600025E56055
:100DE80025612575201DFFF74BFD3846FFF7DCFA16
:100DF8003580F8BD42F6E1631380FAE745F6C35340
:100E08001380F6E7591100204D555458836BCB6079
:100E180081637047F8B5544B1B785BB906460D469D
:100E28001446524B1B78012B09D045F68963069A64
:100E3800138003E046F2AE13069A1380F8BD40B162
:100E480062B1B2F5004F09D045F62563069A1380C2
:100E5800F4E745F6C353069A1380EFE73268444B2C
:100E68009A4204D045F6C453069A1380E6E7FFF782
:100E780097FA0746337D3BB330693E490968884293
:100E880031D014F4004F42D13B4B1B78002B46D194
:100E980090F8333091F833108B4248D82A46042111
:100EA8003046FFF715FF3846FFF77EFAFFF7E2FBFB
:100EB800FFF776FA2F4B1B6893F83130032B4ED887
:100EC800DFE803F0383E48432A4B186830610123B5
:100ED80033753146FFF79AFF3846FFF765FA002366
:100EE800069A1380AAE7FF2B09D0013333753846D9
:100EF800FFF75AFA45F28273069A13809EE738463E
:100F0800FFF752FA45F28473069A138096E738463B
:100F1800FFF74AFA46F2B013069A13808EE738466E
:100F2800FFF742FA46F66353069A138086E700F005
:100F3800E1FEB3E70023069A1380FFF735FA7DE751
:100F480046F2A913069A1380F7E747F2D923069ABF
:100F58001380F2E745F6C253069A1380EDE746F68A
:100F68002E63069A1380E8E75911002068130020C1
:100F78004D5554583414002069130020383001E0CE
:100F880003F10C0003688B42FAD1DB6803607047F9
:100F980000F138033F2000E00C331B6843B15A6866
:100FA800002AF9D092F833209042F5D91046F3E799
:100FB800704700002DE9F04782B01446494B1B7872
:100FC8004BB906460D46484B1B78012B09D045F610
:100FD8008963138002E046F20E23138002B0BDE855
:100FE800F08738B151B1B1F5004F07D045F6256308
:100FF8001380F3E745F6C3531380EFE732683B4BA2
:101008009A4203D045F6C4532380E7E7FFF7C8F9AF
:1010180007463369364A106883422CD1337D013B39
:10102800DBB2337573BB3146FFF7A8FF736883B330
:101038002F4BD3F8009099F833A099F83480C24523
:101048002FD1D6F80480C6F81080012333753146B5
:101058004046FFF7DBFE0022009213464146304629
:10106800FFF758FD3846FFF79FF915F4004F36D0C3
:1010780000232380B2E73846FFF796F945F28173DB
:101088002380ABE73846FFF78FF945F28373238057
:10109800A4E70025356135753846FFF785F92580C1
:1010A8009CE74846FFF774FF804528BF80465FFAF3
:1010B80088F8C245C5D24846FFF786FDDFF830906C
:1010C800D9F8003083F83380404600F057F8D9F853
:1010D8000000FFF7EDFC074B83F80080B1E7FFF74E
:1010E800C9FAC5E759110020681300204D55545816
:1010F8003414002064110020F0B583B00646846BD8
:1011080003E00023237523613C46B4B1E768214618
:101118003046FFF733FF6568002DF2D026610123C2
:10112800237521462846FFF771FE002200921346D8
:1011380029462046FFF7EEFCE6E703B0F0BD0000C5
:10114800002304E0034A002142F823100133012B55
:10115800F8D97047A410002010B50024064B02E00F
:101168002034E4B2043318680028F9D0FFF723F9D3
:1011780054FA80F0C0B210BDA41000204FEA501CF1
:1011880000F01F004FF00042C240034951F82C30D4
:10119800134341F82C307047A41000204FEA501C2C
:1011A80000F01F004FF00042C240044951F82C30B3
:1011B80023EA020341F82C30704700BFA410002036
:1011C800F8B51D460E49097889B90446164690B106
:1011D800FFF7E6F807460B4B2360E660201DFFF794
:1011E8004FFB3846FFF7E0F800232B80F8BD42F6A6
:1011F800E1632B80FAE745F6C3532B80F6E700BF7F
:101208005911002053454D412DE9F041434B1B78BE
:1012180063B907460E461546414B1B78012B0DD086
:1012280045F68963069A1380002404E046F2AE135B
:10123800069A138000242046BDE8F08148B172B1B7
:10124800B2F5004F0BD045F62563069A13800024AB
:10125800F1E745F6C353069A13800024EBE73A6892
:10126800304B9A4205D045F6C453069A13800024A1
:10127800E1E7FFF795F88046FC68DCB915F4004F04
:1012880020D1294B1B7823BB324606213846FFF76D
:101298001FFD4046FFF788F8FFF7ECF9FFF780F8E5
:1012A800224B1B6893F83130032B2FD8DFE803F06B
:1012B800181F2924013CFC60FFF776F80023069AE2
:1012C8001380B8E7FFF770F846F2B013069A138058
:1012D800B1E7FFF769F846F66353069A1380AAE761
:1012E8000023069A1380FC68FFF75EF8A3E746F22E
:1012F800A913069A1380F6E747F2D923069A1380B2
:10130800F1E745F6C253069A1380ECE746F62E63DA
:10131800069A1380FFF748F88DE700BF591100209F
:101328006813002053454D416913002034140020F0
:101338002DE9F04182B016462E4B1B78012B07D0C1
:1013480045F6896313800024204602B0BDE8F08189
:1013580005460C4680B1B1F5004F04D011D811B143
:10136800B1F5007F10D12A68234B9A4211D045F677
:10137800C45333800024E7E745F6C35313800024A1
:10138800E2E7B1F5024FEED045F62563338000243D
:10139800DAE7FFF705F88046696861B1E9B14F6A95
:1013A8000022009213462846FFF7B4FB14F4007F8E
:1013B80013D03946F2E7EC68B4F1FF3F06D00134A8
:1013C800EC60FEF7F1FF00233380BDE7FEF7ECFF8A
:1013D80046F6C55333800024B6E74046FEF7E4FFDF
:1013E80014F4004F02D000243480ADE7FFF742F92F
:1013F800F9E700BF6813002053454D4138B504464E
:10140800FEF7CEFF0025034B1D80FEF7CDFF25809C
:1014180038BD00BF7413002030B583B007E03A4BE5
:1014280018680DF106020021400000F01BFF374B41
:101438001B78012BF3D10DF10600FFF7DFFF344BCA
:101448001B68314A1468A34203D9B3FBF4F4002C97
:101458003BD1304AA2FB0323DC0836E0012142F2EB
:101468001070B2FBF1F200FB03F3B3FBF2F342F2AC
:101478001072D21A92B2284B1A80284B1B889A42B3
:1014880010D9264B1A800DE00A214FF47A70E8E74C
:1014980064210846E5E742F210710120E1E71E4B9E
:1014A80000221A8001F01AF91D4B1B78012B06D176
:1014B8001B4B00221A700DF10600FFF79FFF0DF17C
:1014C80006020021204600F0CDFEFEF769FF154D0B
:1014D800154B1A682A6000221A60FEF765FF134B45
:1014E8001A682B689A42DAD911498A42B6D9114941
:1014F8008A42C9D910498A42CAD310498A42CAD8ED
:101508004FF47A710A20ACE7803B0008841300206E
:10151800943B0008CDCCCCCC72130020741300206F
:101528007113002080130020781300207C13002002
:101538007F1A0600FF083D00005A6202FF83D71792
:1015480010B582B004460023ADF80630274B1B784F
:10155800012B04D045F68963038002B010BD0DF15C
:101568000601234800F008FABDF806300BB12380C5
:10157800F3E70DF106020021022000F073FEBDF82A
:1015880006300BB12380E8E7FEF70AFF194B00226B
:101598001A60FEF709FF184B1B68184A1068834247
:1015A80002D9B3FBF0F018B9154AA2FB0323D808F7
:1015B8000DF10602002100F055FE0DF106010C4860
:1015C80000F076F8BDF806300BB12380C5E7FEF7CA
:1015D800E7FE084B1A680B4B1A600B4B01221A7076
:1015E800FEF7E2FE00232380B7E700BF6813002060
:1015F8001815002078130020943B0008803B000851
:10160800CDCCCCCC7C1300208413002000231C4AB2
:1016180013601C4A13601C4A13601C4A13701C4A4E
:1016280013701C4B1A687AB110B58AB01A4B1C6833
:101638001A4B1B689C420BD3194B1B783E2B0CD9B9
:1016480046F62A63038006E046F62B63038070475C
:1016580046F62C6303800AB010BD08900321079159
:10166800002106910591049103940E4800680290A8
:10167800019200930B460C4A0C4800F06DFAEAE719
:1016880078130020801300207C130020841300208E
:1016980071130020843B00088C3B0008903B000835
:1016A8007E3B0008883B00082114000888130020AE
:1016B80070B50C463B4B1B7843B905463A4B1B7833
:1016C800012B07D045F689630B8070BD47F255138F
:1016D8000B80FAE7FEF764FEA5B1344B1B68AB42FA
:1016E80010D0FEF761FEFEF75BFE0646002323805E
:1016F80095F83230072B4ED8DFE803F00A0A0A0AB9
:101708001223313FFEF750FE47F257132380DCE7E0
:10171800FEF74AFE47F253132380FEF7ABFFD4E7E8
:1017280095F88230013BDBB285F882301BB1304638
:10173800FEF73AFEF1E785F832302846FFF7D4F98C
:10174800F5E795F88230013BDBB285F8823013B9B2
:10175800012385F832303046FEF726FEDDE795F89E
:101768008230013BDBB285F8823013B9022385F859
:1017780032303046FEF718FECFE795F88230013B4D
:10178800DBB285F8823013B9032385F8323030464E
:10179800FEF70AFEC1E7FEF707FE46F62D63238033
:1017A80093E700BF5911002068130020341400206B
:1017B8002DE9F0411D46334C247854B907460E46AE
:1017C800314B1B78012B0BD045F689632B80002405
:1017D80003E046F2AE132B8000242046BDE8F081DA
:1017E80039B1B1F5004F04D045F625632B800024AC
:1017F800F3E7FEF7D5FD8046244B1B685C6CF4B913
:1018080016F4004F22D1224B1B782BBB3A460721F6
:101818000020FFF75DFA4046FEF7C6FDFEF72AFFF7
:10182800FEF7BEFD194B1B6893F83130012B20D011
:10183800032B22D0B3B146F62E632B8013E0013C74
:101848005C64FEF7B1FD00232B80C6E7FEF7ACFD14
:1018580046F2B0132B80C0E7FEF7A6FD46F66353A9
:101868002B80BAE72B80094B1B685C6CFEF79CFD4C
:10187800B3E746F2A9132B80F5E747F2D9232B806B
:10188800F1E700BF5911002068130020341400202C
:1018980069130020F0B583B01446354B1B78012B33
:1018A80006D045F6896313800024204603B0F0BDB6
:1018B80006460D4639B1B1F5004F04D045F625630B
:1018C80013800024F1E7FEF76BFD07465EB10023A5
:1018D800238096F83230072B41D8DFE803F007075A
:1018E800191907071919234B1E68F0E7736CB3F130
:1018F800FF3F05D05C1C74643846FEF755FDD4E7FD
:101908003846FEF751FD46F6C55323800024CCE740
:1019180096F83030072B09D0736CB3F1FF3F16D01F
:101928005C1C74643846FEF73FFDBEE7002000905B
:10193800034602463146FFF7EDF8746C3846FEF769
:1019480033FD15F4004FB0D1FEF794FEADE73846ED
:10195800FEF72AFD46F6C55323800024A5E738463E
:10196800FEF722FD46F62D63238000249DE700BF85
:10197800681300203414002070B50D46424B1B78C4
:10198800BBB90446414B984217D0FEF709FD0646FD
:10199800BCB13F4B1B68A34220D000232B8094F896
:1019A8003230072B68D8DFE803F02437414B555510
:1019B800555547F25D130B8070BD47F25B130B80E2
:1019C800FAE7344B1B78012B02D1314B1C68E0E756
:1019D800FEF7EAFC45F689632B80EDE72E4B1B7872
:1019E800002BDAD03046FEF7DFFC46F663532B8037
:1019F800E2E7042384F83230012384F88230204659
:101A0800FFF7E2F83046FEF7CFFC224B1B78012B9C
:101A1800D2D1FEF72FFECFE7052384F83230012319
:101A280084F882303046FEF7BFFCEEE7062384F8E0
:101A38003230012384F882303046FEF7B5FCE4E703
:101A4800072384F83230012384F882303046FEF7C9
:101A5800ABFCDAE794F88230FF2B06D0013384F828
:101A680082303046FEF7A0FCCFE73046FEF79CFCFC
:101A780047F260132B809FE73046FEF795FC46F649
:101A88002D632B8098E700BF59110020AC1000206F
:101A98003414002068130020691300200023034A2F
:101AA8001380034A13600380704700BF401400206E
:101AB8003C14002038B50446002505608560456063
:101AC800C560056145618561C56105628565A0F8E8
:101AD8005C5029466030FFF76FF9E5662567A56712
:101AE800A4F88050E56775B300236364C4F89C309C
:101AF800C4F8A030E36384F88230C4F8A830C4F88E
:101B0800A430A4F84030A364E36423656365A4F8B3
:101B18008430A4F88630C4F88830C4F88C30C4F80F
:101B28009030C4F894306362A362E36284F8303082
:101B380084F8313084F83230402284F8332084F835
:101B48003420A36338BD05F11C0304EB8303002292
:101B58005A600135EDB2C6E72DE9F04E82B09DF826
:101B68002890BDF844A05D4D2D78EDB90446164681
:101B78001F4600B322B30B9B3BB3594B1B680D9A0E
:101B8800934227D80D9B0C9A934228D9B9F13F0F5D
:101B98002AD8B9F13F0F2CD1524B984229D046F29E
:101BA8007323129A138003E047F24A13129A1380A0
:101BB80002B0BDE8F08E47F2AD13129A1380F7E732
:101BC80047F24F13129A1380F2E746F62F63129AE0
:101BD8001380EDE746F63063129A1380E8E746F67D
:101BE8003163129A1380E3E746F27323129A138043
:101BF800DEE72046FFF75EFF0023129A13801AF0F3
:101C0800030F02D01AF0020F4ED10B9B0C9A03EB74
:101C1800820BCDF804A00D9B00935B460B9A3946C6
:101C2800304600F07BFD0B9B834240D884F833900C
:101C380084F834902060C4F808B00F9B2365002B0B
:101C48003AD1294B1B686365109B63600B9B236229
:101C58000D9BE363A4F840A08DB3BDF8381004F1E0
:101C68006000FFF7A9F8204600F040FDFEF798FB5A
:101C7800054694F83300FFF781FA2046FEF718FF6F
:101C88001A4A138801331380194B1B78012B1FD074
:101C98002846FEF789FB8BE7002142F8041B013335
:101CA8000D998B42F8D3B0E70B9A0023F8E746F674
:101CB8002C63129A13807BE70F9B6365C4E705F1D9
:101CC8001C0304EB830300225A600135EDB2C3E71D
:101CD8002846FEF769FBFEF7CDFC69E7591100209D
:101CE800903B0008AC1000206C130020401400202A
:101CF8006813002070B504460D4694F8336094F8D4
:101D08003230072B1BD8DFE803F004181B1B181808
:101D18001B1B2046FEF758FF84F833502846FFF770
:101D28002DFA204B1B68A34203D02046FEF7C0FEC5
:101D380005E02046FEF7A0FE01E084F8335070BDB0
:101D480084F8335094F83030042B0BD004D9053B79
:101D5800DBB2012BF3D801E0012BF0D12046FEF7CE
:101D6800D2FDECE72046FEF7CEFDE36A1C69B542DA
:101D780006D294F83330AB42E1D9002CBDD1DEE76E
:101D880094F83330B342F8D12046FFF701F994F8BC
:101D98003450854228BF0546EDB294F83330AB4243
:101DA800EBD1CCE7341400202DE9F0410D464C4B23
:101DB8001B7843B904464B4B1B78012B08D045F6DA
:101DC80089630B8002E047F24E130B80BDE8F08177
:101DD800454B98420DD080B1FEF7E2FA064694F8DA
:101DE8003230072B76D8DFE803F00F303434123066
:101DF800343447F24C130B80E8E7FEF7D1FA3B4B3B
:101E08001C68FEF7D1FAE7E72046FEF7DDFEA36B74
:101E180013B12046FFF770F904F16000FEF7ACFF3C
:101E2800204600F06BFC324A1388013B13802046A1
:101E3800FFF740FEFF2384F8323000232B80304622
:101E4800FEF7B2FAFEF716FCC0E7204600F0E6F906
:101E5800DDE794F83030042B14D00BD8012B0DD0CB
:101E680094F83230072B18BF032BD0D1204600F04E
:101E7800D5F9CCE7053BDBB2012BF1D82046FEF7BC
:101E880027FDEDE7E36A1F6997F833802046FEF7E0
:101E98001FFD97F8333097F83420934203D094F815
:101EA800332093420BD0002384F8303097F8333036
:101EB8004345D5D041463846FFF71CFFD0E73846A2
:101EC800FFF766F897F83480804528BF80465FFAA8
:101ED80088F8E8E7FEF768FA46F62D632B8075E781
:101EE8005911002068130020AC1000203414002081
:101EF8004014002000B583B0054B186800F006FCBC
:101F08000DF106010020FFF74FFF03B05DF804FB59
:101F18003414002038B5194B1C6864B30546A36C0B
:101F2800834203D8C51A0023A3640FE01B1AA364D5
:101F38000CE0002384F832302046FEF7D5FD0DE092
:101F4800042384F8323009E05B1BA364A36C93B9C3
:101F580094F83230012BECD0052BF1D06469074B93
:101F68001C6044B10023A361A36CAB42ECD8ED1A0A
:101F78000023A364EAE7002038BD00BF481400200E
:101F880070B5334B1C68002C5FD00646A36C8342A7
:101F980003D8C61A0023A36420E01B1AA3641DE01B
:101FA800E36A1D6921E02046FEF79EFD002384F8C0
:101FB800323027E0042384F8323023E02846FFF744
:101FC80099FE6469224B1C60002C3ED00023A3615B
:101FD800A36CB34236D8F61A0023A364A36CA3BB40
:101FE80094F83030042BDBD000250023A365A4F837
:101FF8005C302046FEF76CFC94F83230032BD2D0CC
:10200800072BD7D0032384F83130002384F83030ED
:10201800002DD6D095F8333095F834209342D0D09F
:1020280094F833209342CCD12846FEF7B1FF95F8B7
:102038003410814228BF0146C9B295F833308B422B
:10204800BFD0BBE79B1BA364C8E7002070BD00BFDF
:102058004C14002010B582B00023ADF806300DF105
:102068000603002211461046FFF7A2FBBDF8063012
:10207800002BF4D1FEF794F90446074A136801339C
:1020880013600120FFF746FF0120FFF779FF204684
:10209800FEF78AF9E3E700BF4414002000231A4A38
:1020A80013601A4A13601A4A13601A4B1A687AB1F5
:1020B80010B58AB0184B1C68184B1B689C420BD390
:1020C800174B1B783E2B0CD947F21123038006E0EF
:1020D80047F212230380704747F2132303800AB0A4
:1020E80010BD08900B2107910021069105910491DC
:1020F80003940C4800680290019200930B460A4A28
:102108000A48FFF729FDEAE7441400204814002094
:102118004C1400209C3B0008A43B0008903B00089E
:10212800983B0008A03B00085D20000850140020E0
:1021380010B4046844B123461BB39C6C94420AD281
:10214800121B1C465B69F7E78A6400234B618B61AD
:10215800C86101601AE09C694CB18A648C614B616A
:10216800C861986C801A9864996161610EE08A640C
:102178008C614B61C8619C6CA41A9C649961016074
:1021880004E08A648C614B61C86161615DF8044B4D
:102198007047000038B51F4C2468042A0FD0082A5D
:1021A80018D000221A80012380F83230194B1A689F
:1021B800A21A0A4401461848FFF7BAFF38BD091B9E
:1021C8004A1E12F1011FECD90022826447F27E22D6
:1021D8001A80F3E7C26CA4EB020C8C4502D9621892
:1021E800C264DEE7A2EB040E8E440EF1FF3515F152
:1021F800011F03D80A44C2647146D2E7BCFBF1FC54
:102208000CFB011C6244C2640022826447F27E22F5
:102218001A80D3E74414002048140020C169826959
:10222800436962B1536123B19A61816C9A6C0A4423
:102238009A640023836143618364C361704763B117
:1022480030B400229A61846C9D6C2C449C640B60B1
:1022580042618264C26130BC70470B608364C361B1
:1022680070470000F8B51446214B1B784BB9064659
:102278000D46204B1B78012B07D045F68963138048
:1022880002E047F275231380F8BD1B4B1B7843B956
:10229800082925D8DFE801F0092409240A24242480
:1022A800090046F663531380EEE7A8B1FEF778F805
:1022B800074623462A46314610480068FFF76AFF5A
:1022C80023888BB90D4B1868FEF77EFC3846FEF75D
:1022D8006BF8FEF7CFF9D7E747F27E231380D3E7F1
:1022E80045F625631380CFE73846FEF75DF8CBE760
:1022F80059110020681300206913002034140020AD
:10230800F8B5BDF818C0079D4B4C24783CB94B4C28
:102318002478012C07D045F689632B8002E047F228
:1023280075232B80F8BD464C247854B90CF00E0464
:10233800082C25D8DFE804F0092409240D242424D6
:10234800090046F663532B80ECE713B90AB901B9C3
:1023580090B13CF01E0617D11CF0100F24D1B3F534
:102368007A7F15D23B2A17D83B2919D8632822D956
:1023780047F278232B80D5E747F27E232B80D1E7DD
:1023880045F625632B80CDE745F625632B80C9E705
:1023980047F27B232B80C5E747F27A232B80C1E7DE
:1023A80047F279232B80BDE742F20F76B1421ED85F
:1023B800B0F57A7F1FD2234E3768C1EB011189002F
:1023C8004FF4616606FB001002444FF4FA76B6FB40
:1023D800F7F61E4407FB06F61B4BA3FB0636B609A9
:1023E80007FB02665EB947F27E232B809AE747F225
:1023F80079232B8096E747F278232B8092E7FDF725
:10240800CFFF07462B462246314610480068FFF7A3
:10241800C1FE2B885BB90D4B1868FEF7D5FB384613
:10242800FDF7C2FFFEF726F900232B807AE738462E
:10243800FDF7BAFF76E700BF5911002068130020A6
:1024480069130020943B0008D34D62103414002017
:10245800144B1B78012B00D0704700B583B000F0F7
:1024680055FA0DF1060200210F48FFF713FA0F4B3A
:1024780018780F4B03EBC000FEF7CEFB0D4A13682C
:10248800013B136013B103B05DF804FB0A4B1A68F3
:10249800084B1A600DF1060200210848FFF7FAF907
:1024A800F1E700BF681300205014002064110020D9
:1024B80068110020CC150020C81500201815002030
:1024C80000B585B00021ADF80E100DF10E03009394
:1024D80002AB0A460248FEF79DFC05B05DF804FB16
:1024E8000015002000B583B00021ADF806100DF1ED
:1024F80006020348FEF75EFD03B05DF804FB00BF6B
:102508000015002010B58AB00446274B00221A6037
:10251800264B1B681BB3264A1268B2FBF3F3254A05
:102528001360244B1A68244B1A600021234B19604E
:1025380022462348FEF746FC238803BB214B1A6832
:10254800B2B1214B1868214B1B68984214D3204B19
:102558001B783E2B15D947F2463323800FE0144BE6
:102568001B681C4AA2FB0323DB08124A1360D8E746
:1025780047F24733238002E047F2483323800AB00A
:1025880010BD08940B210791002106910591049133
:102598000390114800680290019200930B460F4A7D
:1025A8000F48FFF7D9FAEAE7FC140020AC3B000813
:1025B800943B0008C8150020CC150020C415002045
:1025C80000150020B03B0008B83B0008903B00080D
:1025D800A83B0008CDCCCCCCB43B00082126000891
:1025E800181500200B4B1B6883420BD00269C36887
:1025F800D36003B11A61012380F822300023C3603D
:1026080003617047C368034A1360002BF3D00022AC
:102618001A61F0E7FC14002030B583B00023ADF850
:10262800063022E02046FFF7DDFF032384F822303E
:10263800636813B1A168204698470DF10600FEF7BC
:1026480085F82C467CB10DF10600FEF755F8E568D3
:102658006369013B6361002BEFD1238C022BE1D12D
:10266800E3696361E4E7FFF73DFF0DF106036A469E
:1026780000210846FFF79CF8FFF722FF034A13687A
:1026880001331360024B1C68DCE700BFC41500204F
:10269800FC14002008B5024B1B6803B1984708BD1D
:1026A800D01500200A4B1A680A4B1B6803EB8203FB
:1026B800094A136023F0070313604FF0E023D3F8AF
:1026C800343F03F04043B3F1404F00D0FEE770477A
:1026D800683B0008643B0008EC15002008B5024B75
:1026E8001B6803B1984708BDD415002008B5024BF4
:1026F8001B6803B1984708BDD815002008B5024BE0
:102708001B6803B1984708BDDC15002008B5024BCB
:102718001B6803B1984708BDE015002010B4019C60
:1027280002EB840222F007024FF0007442F8084CD2
:102738005F4C42F80C4CA4F5801442F8104CA4F5F8
:10274800801442F8144CA4F5801442F8184CA4F5EF
:10275800801442F81C4CA4F5801442F8204CA4F5CF
:10276800801442F8244C4FF0824442F8284CA4F5D7
:10277800001442F82C4CA4F5001442F8304CA4F58F
:10278800001442F8344C4FF0814442F8384CA4F518
:10279800800442F83C4C4FF0804442F8404C4FF0E3
:1027A8007E5442F8444C002442F8484C4FF0807460
:1027B80042F84C4C42F8500C3E4842F8540C4FF04A
:1027C800123042F8580C4FF0033042F85C0C4FF0CE
:1027D800023042F8600C42F8643C42F8681C6FF022
:1027E800120342F86C3C4FF0113342F8703C4FF042
:1027F800103342F8743C4FF0093342F8783C4FF0FC
:10280800083342F87C3C4FF0073342F8803C4FF0E5
:10281800063342F8843C4FF0053342F8883C4FF0C9
:10282800043342F88C3C244B42F8903CA3F5002337
:1028380042F8943CA3F5002342F8983CA3F5002302
:1028480042F89C3CA3F5002342F8A03CA3F50023E2
:1028580042F8A43CA3F5002342F8A83CA3F50023C2
:1028680042F8AC3CA3F5002342F8B03CA3F50023A2
:1028780042F8B43CA3F5002342F8B83CA3F5002382
:1028880042F8BC3CA3F5002342F8C03CA3F5002362
:1028980042F8C43CA3F5002342F8C83C4FF08343F8
:1028A80042F8CC3CA2F1CC005DF8044B704700BF65
:1028B80000007041FD1E00080000F84108B5104BEB
:1028C8001B681868FDF7E4FC0E4B1B6803B19847BA
:1028D8000B4B1B680C4A1268934209D0D3F890102E
:1028E8004942C3F88C10D3F894000844C3F8940004
:1028F8000023C2F890301068FDF7D3FC08BD00BF74
:1029080034140020E41500203814002008B5024BC8
:102918001B6803B1984708BDE815002010B5FDF7FE
:102928003FFD0446FDF748FE2046FDF73DFDFFF755
:102938008FFDFDF751FE10BD01384FF0E0235861BF
:10294800D3F8202D22F07F42C3F8202D1A6942F0D7
:1029580005021A611A6942F002021A617047000002
:1029680008B5034B1B68B0FBF3F0FFF7E5FF08BDA4
:10297800943B000808B54FF0E023D3F8080D002376
:1029880006E050F82310084A42F8231001339BB29E
:10299800A52BF6D9FDF704FD034A4FF0E023C3F851
:1029A800082DFDF701FD08BD0018002010B41649D8
:1029B800D1F8883043F47003C1F88830134B1A6893
:1029C80042F001021A6000221A611C681048204077
:1029D80018609A61DA611A629A62DA621A635A6353
:1029E8009A63DA631A645A64186820F480201860BD
:1029F8001A66084B0122C3F808214FF000638B6068
:102A08005DF8044B704700BF00ED00E00044025839
:102A18007FEDF6EA0080005100B59FB02D4BDA68D3
:102A280022F00402DA60002201929A6942F44042DC
:102A38009A619B6903F440430193019B254B9B6971
:102A480013F4005FFAD0012303934FF4A0230493F7
:102A5800002206920A9202230C930D9304210E91F0
:102A68004FF4C8700F901093129311911492082389
:102A7800139303A800F0E4F900B1FEE73F2316938F
:102A880003231793002318930823199340231A93B9
:102A98001B934FF480621C921D93042116A800F02A
:102AA80079FD00B1FEE70C4B1A6842F080021A600B
:102AB800D3F8F42042F00202C3F8F420D3F8F4303B
:102AC80003F002030293029B00F0B2F91FB05DF815
:102AD80004FB00BF004802580044025808B5032808
:102AE8000FD8DFE800F00205080B00F06FFC08BD06
:102AF80000F04AFEFBE700F061FEF8E700F074FE24
:102B0800F5E70020F3E7000008B5104BD3F8B43F11
:102B180013F0010F06D013F0020F03D00B4B0C4A31
:102B2800C3F8B02F0020FFF7D9FF4FF0E022D2F80A
:102B3800FC3D43F08073C2F8FC3DA2F55042136897
:102B480043F001031360FDF7E3FC08BD001000E04B
:102B580055CEACC5F0B587B0164BD3F8E02042F09F
:102B68000202C3F8E020D3F8E03003F00203009338
:102B7800009B0125019502950026039602240494E2
:102B88000D4F01A9384600F03DF8019402950396CF
:102B9800049401A9094800F035F84FF480430193E3
:102BA80002950396049401A9384600F02BF807B063
:102BB800F0BD00BF0044025800040258001002583B
:102BC8004FF0E022136943F00303136170474FF09D
:102BD800E022136923F003031361704738B500201E
:102BE800FFF77CFF0546FDF7DBFB04462846FFF7A9
:102BF800B7FEFFF7ECFF2046FDF7D6FB38BD0020F7
:102C08007047000000230F2B00F2F08070B582B0EF
:102C180043E0092200E00022AA4032430234744D06
:102C280045F824204FF0B042D2F880406FEA0C02F9
:102C380024EA0C054E6816F4803F01D04CEA0405DE
:102C48004FF0B044C4F88050D4F8844002EA040538
:102C58004E6816F4003F01D04CEA04054FF0B0442A
:102C6800C4F88450246802EA04054E6816F4801FEC
:102C780001D04CEA04054FF0B04425606468224056
:102C88004D6815F4001F01D04CEA04024FF0B0441F
:102C9800626001330F2B00F2A78001229A400C6872
:102CA80004EA020C32EA0404F3D14C68122C18BF6F
:102CB800022C12D1DD08083550F8254003F007062C
:102CC800B6004FF00F0E0EFA06FE24EA0E0E0C693F
:102CD800B44044EA0E0440F8254006684FEA430E23
:102CE800032404FA0EF4E54326EA04064C6804F0CB
:102CF800030404FA0EF4344304604C68661E112C75
:102D080018BF012E01D9122C0FD186682E40CC682D
:102D180004FA0EF434438460446824EA02044A68DE
:102D2800C2F300129A4022434260C26815408A6882
:102D380002FA0EF22A43C2604A6812F0805FA8D0F5
:102D48002C4AD2F8F44044F00204C2F8F440D2F815
:102D5800F42002F002020192019A9C08A51C244A60
:102D680052F8256003F00305AD000F22AA4026EAB9
:102D78000206214A90423FF44EAF02F5806290422B
:102D880022D002F58062904220D002F58062904203
:102D98001ED002F5806290421CD002F580629042FB
:102DA8001AD002F58062904218D002F580629042F3
:102DB80016D002F58062904214D002F580629042EB
:102DC8003FF427AF0A2227E7012225E7022223E75B
:102DD800032221E704221FE705221DE706221BE73D
:102DE800072219E7082217E702B070BD704700BF35
:102DF8000004005800440258000002584369594032
:102E080041617047704710B5032000F003FD0F20A3
:102E1800FFF7F5FE10B10124204610BD0446FFF768
:102E2800F1FFF9E7014B1868704700BF981A0020B6
:102E3800024A136A43F00103136270470004005802
:102E480038B50446036813F0010F2AD0A44B1B6958
:102E580003F03803102B1BD0A14B1B6903F0380378
:102E6800182B0FD06368B3F5803F44D0002B5AD19C
:102E78009B4B1A6822F480321A601A6822F4802266
:102E88001A603DE0964B9B6A03F00303022BE9D1DD
:102E9800934B1B6813F4003F03D06368002B00F0CA
:102EA8008582236813F0020F00F097808C4B1B6912
:102EB80013F0380F64D08A4B1B6903F03803182BC2
:102EC80059D0E368002B00F0BF8085490A6822F0DA
:102ED800190213430B60FFF7A5FF0546804B1B68DB
:102EE80013F0040F40F0A180FFF79CFF401B02285D
:102EF800F4D9032061E27A4A136843F480331360FB
:102F080063683BB3FFF78EFF0546754B1B6813F4E8
:102F1800003FC6D1FFF786FF401B41F28833984235
:102F2800F3D9032049E2B3F5A02F09D06C4B1A68F6
:102F380022F480321A601A6822F480221A60DFE7CD
:102F4800674B1A6842F480221A601A6842F4803289
:102F58001A60D5E7FFF766FF0546614B1B6813F457
:102F6800003F9ED0FFF75EFF401B41F28833984236
:102F7800F3D9032021E25A4B9B6A13F0030FA0D127
:102F8800574B1B6813F0040F03D0E368002B00F0C5
:102F98000F82534A136823F01903E1680B43136047
:102FA800FFF740FF05464E4B1B6813F0040F06D190
:102FB800FFF738FF401B0228F5D90320FDE14848F8
:102FC800436823F47C3321694FF47C3292FAA2F2ED
:102FD800B2FA82F291400B434360236813F0100F5A
:102FE80063D03F4B1B6903F03803082B46D03C4B9A
:102FF8001B6903F03803182B3AD0E369002B00F063
:103008008080374A136843F080031360FFF70AFF94
:103018000546334B1B6813F4807F63D1FFF702FF2B
:10302800401B0228F5D90320C7E12D48436823F443
:103038007C3321694FF47C3292FAA2F2B2FA82F21E
:1030480091400B434360C8E7254A136823F0010306
:103058001360FFF7E7FE0546214B1B6813F0040FCA
:10306800BBD0FFF7DFFE401B0228F5D90320A4E1FF
:103078001B4B9B6A03F00303012BBED1184B1B6843
:1030880013F4807F03D0E369802B40F093811448C8
:10309800436823F0F843216A4FF0F84292FAA2F20B
:1030A800B2FA82F291400B434360236813F0080F91
:1030B8004FD06369002B38D0094A536F43F001039E
:1030C8005367FFF7AFFE0546054B5B6F13F0020F22
:1030D8003FD1FFF7A7FE401B0228F5D903206CE17A
:1030E800004402587F48436823F0F843216A4FF0B0
:1030F800F84292FAA2F2B2FA82F291400B4343608C
:10310800D3E7784A136823F080031360FFF78AFE39
:103118000546744B1B6813F4807FC6D0FFF782FE08
:10312800401B0228F5D9032047E16E4A536F23F06C
:1031380001035367FFF776FE05466A4B5B6F13F092
:10314800020F06D0FFF76EFE401B0228F5D90320B8
:1031580033E1236813F0200F29D0A3699BB1614A9A
:10316800136843F480531360FFF75CFE05465D4B1C
:103178001B6813F4005F1AD1FFF754FE401B0228A6
:10318800F5D9032019E1574A136823F480531360D3
:10319800FFF748FE0546534B1B6813F4005F06D043
:1031A800FFF740FE401B0228F5D9032005E12368FC
:1031B80013F0040F21D1636A002B00F0FD80494A07
:1031C800126902F03802182A00F0F880022B75D034
:1031D800444A136823F080731360FFF723FE044604
:1031E800404B1B6813F0007F00F0DE80FFF71AFEEB
:1031F800001B0228F4D90320DFE03B4A136843F49C
:1032080080731360FFF70EFE0546374B1B6813F4F7
:10321800807F06D1FFF706FE401B6428F5D90320FE
:10322800CBE0A368012B0AD00BBB2E4B1A6F22F000
:1032380001021A671A6F22F004021A6704E0294A89
:10324800136F43F001031367A36833B3FFF7EAFD75
:103258000546244B1B6F13F0020FACD1FFF7E2FDBC
:10326800401B41F288339842F3D90320A5E0052B8F
:1032780009D01C4B1A6F22F001021A671A6F22F04C
:1032880004021A67E0E7174B1A6F42F004021A6744
:103298001A6F42F001021A67D6E7FFF7C3FD054629
:1032A800104B1B6F13F0020F85D0FFF7BBFD401BBF
:1032B80041F288339842F3D903207EE0094A136823
:1032C80023F080731360FFF7ADFD0546054B1B68BF
:1032D80013F0007F0AD0FFF7A5FD401B0228F5D99F
:1032E80003206AE00044025800480258344B996AA7
:1032F800344A0A40A16AE06A41EA00110A439A6224
:10330800226B013AC2F30802616B0139490289B2A2
:103318000A43A16B0139090401F4FE010A43E16B78
:103328000139090601F0FE410A431A63596B264A1E
:103338000A40A06C4FF6F87191FAA1F1B1FA81F147
:10334800884002435A63DA6A22F00C02216C0A436D
:10335800DA62DA6A22F00202616C0A43DA62DA6A35
:1033680042F48032DA62DA6A42F40032DA62DA6A05
:1033780042F48022DA62DA6A42F00102DA621A68FA
:1033880042F080721A60FFF74DFD04460C4B1B6833
:1033980013F0007F06D1FFF745FD001B0228F5D981
:1033A80003200AE0002008E0002006E0012004E0F5
:1033B800012002E0012000E0002038BD0120FCE7E8
:1033C800004402580CFCFFFF0700FFFF6C4B1B6911
:1033D80003F03803102B00F0CF80182B0FD00BB15F
:1033E80068487047664B1B6813F0200F00F0C680D2
:1033F800634B1B68C3F3C1036348D8407047604BF5
:103408009A6A02F00302986AC0F30510D96A01F0BB
:1034180001015B6BC3F3CC0301FB03F307EE903AA6
:10342800F8EE677A012A60D0022A00F08980DAB1C2
:10343800544BB3FBF0F307EE103AB8EE477A504B13
:103448001B6BC3F30803DFED516A67EEA67A06EE3D
:10345800903AF8EE666A76EEA77AF7EE006A77EEAB
:10346800A67A27EE277A5BE0454B1B6813F0200FFE
:103478001FD043490A68C2F3C102434BD340B3FB90
:10348800F0F307EE103AB8EE477A0B6BC3F3080374
:10349800DFED3E6A67EEA67A06EE903AF8EE666AC7
:1034A80076EEA77AF7EE006A77EEA67A27EE277A05
:1034B80036E0354BB3FBF0F307EE103AB8EE477A37
:1034C8002F4B1B6BC3F30803DFED306A67EEA67A58
:1034D80006EE903AF8EE666A76EEA77AF7EE006A9C
:1034E80077EEA67A27EE277A1AE02649B1FBF0F3A1
:1034F80007EE103AB8EE477A214B1B6BC3F308036B
:10350800DFED226A67EEA67A06EE903AF8EE666A72
:1035180076EEA77AF7EE006A77EEA67A27EE277A94
:10352800174B1B6BC3F34623013307EE903AF8EEB3
:10353800676AC7EE267AFCEEE77A17EE900A7047BC
:10354800134AB2FBF0F307EE103AB8EE477A0C4B89
:103558001B6BC3F30803DFED0D6A67EEA67A06EE70
:10356800903AF8EE666A76EEA77AF7EE006A77EE9A
:10357800A67A27EE277AD3E70548704702487047AE
:103588000044025800093D000090D00300000039B3
:1035980000127A0070B504460D46774B1B6803F09D
:1035A80007038B420BD2744A136823F007030B43BB
:1035B8001360136803F007038B4240F0D68023683A
:1035C80013F0020F06D06D4A936923F00F03E168E8
:1035D8000B439361236813F0010F72D0674A936914
:1035E80023F47063A1680B4393616368022B0AD0CC
:1035F800032B2BD0012B30D0604A126812F0040F35
:1036080006D10120B0E0126812F4003F00F0AF804C
:103618005A490A6922F0070213430B61FFF702FCBB
:1036280006466368022B1FD0032B2CD0012B39D000
:10363800524B1B6913F0380F43D0FFF7F3FB801B85
:1036480041F288339842F3D903208DE04B4A12683F
:1036580012F0007FDCD1012086E0484A126812F49B
:10366800807FD5D101207FE0444B1B6903F03803EC
:10367800102B26D0FFF7D6FB831B41F288329342EA
:10368800F2D9032070E03D4B1B6903F03803182B77
:1036980017D0FFF7C7FB801B41F288339842F2D955
:1036A800032061E0354B1B6903F03803082B08D071
:1036B800FFF7B8FB801B41F288339842F2D9032008
:1036C80052E02D4B1B6803F00703AB420AD92A4A84
:1036D800136823F007032B431360136803F00703F1
:1036E800AB4246D1236813F0040F06D0234A9369EE
:1036F80023F0700321690B439361236813F0080FCB
:1037080006D01E4AD36923F0700361690B43D36165
:10371800236813F0100F06D0184AD36923F4E06326
:10372800A1690B43D361236813F0200F06D0134A15
:10373800136A23F07003E1690B431362FFF746FE37
:103748000E4B9B6903F470634FF4807292FAA2F2F5
:10375800B2FA82F2D3400A4AD35CD840094B1860C7
:103768000F20FFF74CFA002070BD0120FCE7012074
:10377800FAE70120F8E700BF002000520044025891
:10378800BC3B00080000002008B500F055F8084BC5
:103798009B6903F00F03012292FAA2F2B2FA82F2B5
:1037A800D340044AD35CD840034B186008BD00BF1F
:1037B80000440258BC3B00080400002008B5FFF78D
:1037C800E3FF074BDB6903F07003102292FAA2F2C1
:1037D800B2FA82F2D340034AD35CD84008BD00BF96
:1037E80000440258BC3B000808B5FFF7CDFF074B63
:1037F800DB6903F4E0634FF4807292FAA2F2B2FA42
:1038080082F2D340024AD35CD84008BD0044025833
:10381800BC3B00080649CB6823F4E0631B041B0C7F
:10382800000200F4E0600343024A1A43CA6070478A
:1038380000ED00E00000FA0508B5FFF7C7FD084BEA
:103848009B6903F470634FF4807292FAA2F2B2FAA1
:1038580082F2D340034AD35CD840034B186008BDBA
:1038680000440258BC3B00080000002000B58FB09F
:10387800FFF7A6F9FFF76EF90DF13600FDF760FEC8
:103888000DAB089303220792002306930593049334
:103898004FF48071039119210291274901910092F7
:1038A800264A27492748FEF757F9BDF8343003B1AF
:1038B800FEE70DF1320308930323079300230693D1
:1038C800059304934FF480720392192202921E4AC0
:1038D8000192052200921D4A1D491E48FEF73CF937
:1038E800BDF8323003B1FEE70DF13605019500242D
:1038F80000942346012221462046FEF701FD00954B
:103908000BAB4FF4004221461348FDF783FABDF88C
:103918003630002BE8D10822C5211048FCF704FEF8
:103928004FF480410E48FFF769FA2A4621460A48B3
:10393800FDF740FBD8E700BF701F00209939000849
:10394800CC3B0008702300201C2400206D3900089F
:10395800D43B00081C2800209C1A0020CC280020FA
:103968000004025800B585B00DF10E05019500243C
:1039780000942346052221462046FEF7C1FC2A462C
:1039880021460248FDF7D4FCEEE700BFB41A002038
:1039980000B585B00DF10E0501950024009423466D
:1039A800012221462046FEF7ABFC009502AB4FF4FE
:1039B800004221461448FDF72DFABDF80E30BBB180
:1039C8000DF10E03009302AB4FF4004200210F48A3
:1039D800FDF71AFCBDF80E30002BDBD10222AF2117
:1039E8000B48FCF7A1FD01210A48FFF707FAD1E7C8
:1039F8000822DE210848FCF797FD2A46214602489E
:103A0800FDF7D8FADCE700BF9C1A0020B41A0020A2
:103A1800C828002000040258CC28002000B58DB02A
:103A2800FFF7F1F9FEF7F8FFFEF7A4FFFFF7D6F866
:103A3800FCF774FDFCF7B0FCFCF766FD0DF12E00F9
:103A4800FCF780FFBDF82E3003B1FEE700F042F826
:103A58000DF12E04224613491348FDF7B3F9234606
:103A6800002212491248FDF7ABFB08940322079283
:103A780000230693059304934FF4807103910D4935
:103A8800486E0290019100920B4A0C490C48FEF7CF
:103A980063F8BDF82E3003B1FEE70DF12E00FCF7F8
:103AA80089FEFEE7DC3B00089C1A0020EC3B00087E
:103AB800B41A0020C41A002075380008FC3B00081E
:103AC800C41E0020704770477047704770477047A2
:103AD8007047000008B5FCF763FC0C4B0C4A1A60F1
:103AE8000C4B0D4A1A600D4B0D4A1A600D4B0E4ACD
:103AF8001A600E4B0E4A1A600E4B0F4A1A600F4B93
:103B08000F4A1A60FCF750FC08BD00BFD015002012
:103B1800CD3A0008D4150020CF3A0008D815002067
:103B2800D13A0008DC150020D33A0008E01500203F
:103B3800D53A0008E4150020D73A0008E815002017
:103B4800D93A0008F8B500BFF8BC08BC9E467047D3
:0C3B5800F8B500BFF8BC08BC9E467047E2
:103B640024040020000100002408002006000000B6
:103B7400400000002409002020003E000A0000004C
:103B8400A40A00200C000000800000004000000097
:103B9400E803000001000000A40C00200C00000059
:103BA400800000003D00000001000000A40E002081
:103BB4000C0000008000000000000000010203046B
:103BC40001020304060708095461736B20410000D5
:103BD4005461736B204200004D7920417272617907
:103BE4002E204D75746578004D792041727261798B
:103BF4002053656D00000000537461727475702069
:083C04005461736B0000000025
:043C0C003D0400086B
:043C1000150400088F
:083C14000090D0030090D003E2
:04000005080004A942
:00000001FF
