:020000040800F2
:1000000000000220313600088136000881360008E1
:1000100081360008813600088136000800000000A3
:100020000000000000000000000000008136000811
:100030008136000800000000850300088D250008B7
:1000400081360008813600088136000881360008B4
:1000500081360008813600088136000881360008A4
:100060008136000881360008813600088136000894
:100070008136000881360008813600088136000884
:100080008136000881360008813600088136000874
:100090008136000881360008813600088136000864
:1000A0008136000881360008813600088136000854
:1000B0008136000881360008813600088136000844
:1000C0008136000881360008813600088136000834
:1000D0008136000881360008813600088136000824
:1000E00081360008813600080000000081360008D3
:1000F0008136000881360008813600088136000804
:1001000081360008813600088136000881360008F3
:1001100081360008813600088136000881360008E3
:1001200081360008813600088136000881360008D3
:1001300081360008813600088136000881360008C3
:1001400000000000000000000000000000000000AF
:1001500081360008813600088136000881360008A3
:100160008136000881360008813600088136000893
:100170008136000881360008813600080000000042
:100180008136000881360008813600088136000873
:100190008136000881360008813600088136000863
:1001A0008136000881360008813600088136000853
:1001B0008136000881360008813600088136000843
:1001C0008136000881360008813600088136000833
:1001D0008136000881360008813600088136000823
:1001E0008136000881360008813600088136000813
:1001F0008136000881360008813600088136000803
:1002000081360008813600088136000881360008F2
:1002100081360008813600088136000881360008E2
:100220008136000881360008813600080000000091
:100230008136000881360008000000008136000881
:1002400081360008813600088136000881360008B2
:1002500081360008813600088136000881360008A2
:100260008136000881360008813600088136000892
:100270008136000881360008813600080000000041
:1002800081360008000000008136000800000000F0
:080290000000000081360008A7
:1002980010B5054C237833B9044B13B10448AFF3B8
:1002A80000800123237010BD00040020000000001E
:1002B800CC36000808B5034B1BB103490348AFF31C
:1002C800008008BD0000000004040020CC360008AF
:1002D800EFF3098121B120ED108A3C490A681060CA
:1002E8007047B0EC108A3A490A681060704772B6D5
:1002F8004EF62250CEF2000040F2FF01C0F200019B
:100308000170002080F3098841F2EC50C2F200002D
:10031800016881F3088802F005F940F2DC40C2F276
:10032800000040F2DD41C2F200010A78027040F29A
:10033800AC70C2F2000040F2B071C2F200010A686B
:100348000260106880F30988EFF3148040F002001F
:1003580080F31488BFF36F8FBDE8F04F0FBCBDE882
:10036800005006BC62B608471A484FF08051016039
:10037800704718484FF080510160704772B6EFF32C
:10038800098020E9F04F40F2AC75C2F200052968F7
:100398000860744602F0C6F840F2DC40C2F2000081
:1003A80040F2DD41C2F200010A78027040F2B071F9
:1003B800C2F200010A682A6044F0040E1068B0E82E
:1003C800F04F80F3098862B670470000AC07002040
:1003D800B007002004ED00E072B6704762B67047BF
:1003E800EFF3108072B6704780F31088704730BF03
:1003F800704720BF7047B0FA80F0704790FAA0F0BD
:10040800B0FA80F0704790FAA0F0704708B5034B37
:1004180000221A6003F004F808BD00BF1C04002085
:1004280008B5FFF7F3FF08BD014B1860704700BF20
:100438001C040020014B00221A6070472004002091
:1004480000B585B00021ADF80E100DF10E03009334
:1004580002AB0A46024800F083FF05B05DF804FBD2
:100468007808002000B583B00021ADF806100DF122
:100478000602034801F044F803B05DF804FB00BF2E
:100488007808002010B58AB00446274B00221A606D
:10049800264B1B681BB3264A1268B2FBF3F3254AA6
:1004A8001360244B1A68244B1A600021234B1960EF
:1004B8002246234800F02CFF238803BB214B1A68EF
:1004C800B2B1214B1868214B1B68984214D3204BBA
:1004D8001B783E2B15D947F2463323800FE0144B87
:1004E8001B681C4AA2FB0323DB08124A1360D8E7E7
:1004F80047F24733238002E047F2483323800AB0AB
:1005080010BD08940B2107910021069105910491D3
:100518000390114800680290019200930B460F4A1D
:100528000F4801F061FBEAE7740800202C37000847
:100538001437000840090020440900203C09002025
:1005480078080020303700083837000810370008CE
:1005580028370008CDCCCCCC34370008A1050008DA
:10056800900800200B4B1B6883420BD00269C368BC
:10057800D36003B11A61012380F822300023C360DD
:1005880003617047C368034A1360002BF3D000224D
:100598001A61F0E77408002030B583B00023ADF885
:1005A800063022E02046FFF7DDFF032384F82230DF
:1005B800636813B1A168204698470DF1060000F062
:1005C800C9FB2C467CB10DF1060000F099FBE568EB
:1005D8006369013B6361002BEFD1238C022BE1D1CE
:1005E800E3696361E4E7FFF73DFF0DF106036A463F
:1005F8000021084601F024F9FFF722FF034A136897
:1006080001331360024B1C68DCE700BF3C09002083
:100618007408002038B50446FFF7E2FE0025034BB6
:100628001D80FFF7E1FE258038BD00BFEC060020E5
:1006380030B583B007E03A4B18680DF10602002187
:10064800400000F081F9374B1B78012BF3D10DF1F5
:100658000600FFF7DFFF344B1B68314A1468A342DA
:1006680003D9B3FBF4F4002C3BD1304CA4FB032397
:10067800DC0836E0012142F21070B2FBF1F200FB17
:1006880003F3B3FBF2F342F21072D21A92B2284B80
:100698001A80284B1B889A4210D9264B1A800DE0E5
:1006A8000A214FF47A70E8E764210846E5E742F248
:1006B80010710120E1E71E4B00221A8001F042FE72
:1006C8001D4B1B78012B06D11B4B00221A700DF114
:1006D8000600FFF79FFF0DF106020021204600F0FB
:1006E80033F9FFF77DFE154D154B1A682A60002275
:1006F8001A60FFF779FE134B1A682B689A42DAD909
:1007080011498A42B6D911498A42C9D910498A423F
:10071800CAD310498A42CAD84FF47A710A20ACE782
:1007280000370008FC06002014370008CDCCCCCCDC
:10073800EA060020EC060020E9060020F806002062
:10074800F0060020F40600207F1A0600FF083D008E
:10075800005A6202FF83D71710B582B004460023FF
:10076800ADF80630274B1B78012B04D045F689637A
:10077800038002B010BD0DF10601234801F044F9D1
:10078800BDF806300BB12380F3E70DF10602002116
:10079800022000F0D9F8BDF806300BB12380E8E755
:1007A800FFF71EFE194B00221A60FFF71DFE184BBB
:1007B8001B68184A1068834202D9B3FBF0F018B9D5
:1007C8001548A0FB0330C0080DF10602002100F017
:1007D800BBF80DF106010C4800F0B2FFBDF8063079
:1007E8000BB12380C5E7FFF7FBFD084B1A680B4BDD
:1007F8001A600B4B01221A70FFF7F6FD00232380C5
:10080800B7E700BFE006002090080020F0060020AF
:100818001437000800370008CDCCCCCCF4060020F3
:10082800FC06002000231C4A13601C4A13601C4A63
:1008380013601C4A13701C4A13701C4B1A687AB157
:1008480010B58AB01A4B1C681A4B1B689C420BD314
:10085800194B1B783E2B0CD946F62A63038006E019
:1008680046F62B630380704746F62C6303800AB074
:1008780010BD08900321079100210691059104916C
:1008880003940E4800680290019200930B460C4AAC
:100898000C4801F0A9F9EAE7F0060020F806002064
:1008A800F4060020FC060020E906002004370008B2
:1008B8000C37000810370008FE3600080837000813
:1008C8003906000800070020002304E0034A00213D
:1008D80042F823100133012BF8D97047640900202E
:1008E80010B50024064B02E02034E4B20433186843
:1008F8000028F9D0FFF77FFD54FA80F0C0B210BD90
:1009080064090020410900F01F004FF0004323FA5A
:1009180000F0034A52F82130034342F8213070476F
:1009280064090020410900F01F004FF0004323FA3A
:1009380000F0044A52F8213023EA000342F821303B
:10094800704700BF64090020F8B51446214B1B7896
:100958004BB906460D46204B1B78012B07D045F6B0
:100968008963138002E047F275231380F8BD1B4B9F
:100978001B7843B9082925D8DFE801F009240924A0
:100988000A242424090046F663531380EEE7A8B12D
:10099800FFF726FD074623462A46314610480068D9
:1009A80001F044FC23888BB90D4B186800F010FC4B
:1009B8003846FFF719FD00F061F9D7E747F27E23C3
:1009C8001380D3E745F625631380CFE73846FFF752
:1009D8000BFDCBE7D1040020E0060020E106002053
:1009E800AC070020F8B5BDF818C0079D4B4C24781B
:1009F8003CB94B4C2478012C07D045F689632B80F1
:100A080002E047F275232B80F8BD464C247854B990
:100A18000CF00E04082C25D8DFE804F0092409247A
:100A28000D242424090046F663532B80ECE713B900
:100A38000AB901B990B13CF01E0617D11CF0100F8D
:100A480024D1B3F57A7F15D23B2A17D83B2919D878
:100A5800632822D947F278232B80D5E747F27E23F3
:100A68002B80D1E745F625632B80CDE745F6256336
:100A78002B80C9E747F27B232B80C5E747F27A230F
:100A88002B80C1E747F279232B80BDE742F20F762E
:100A9800B1421ED8B0F57A7F1FD2234E3768C1EB1A
:100AA800011189004FF4616606FB001002444FF4FF
:100AB800FA76B6FBF7F6334407FB03F61B4BA3FBAA
:100AC8000636B60907FB02665EB947F27E232B801D
:100AD8009AE747F279232B8096E747F278232B8011
:100AE80092E7FFF77DFC07462B4622463146104821
:100AF800006801F09BFB2B885BB90D4B186800F070
:100B080067FB3846FFF770FC00F0B8F800232B802D
:100B18007AE73846FFF768FC76E700BFD104002083
:100B2800E0060020E106002014370008D34D6210CB
:100B3800AC070020144B1B78012B00D0704700B580
:100B480083B001F017FD0DF1060200210F4800F0F7
:100B5800E9FE0F4B18780F4B03EBC00000F060FB69
:100B68000D4A1368013B136013B103B05DF804FB31
:100B78000A4B1A68084B1A600DF106020021084852
:100B880000F0D0FEF1E700BFE0060020C807002013
:100B9800DC040020E0040020440900204009002073
:100BA8009008002008B5FFF71BFC044A13680133BE
:100BB8001360FFF719FC01F0A1FBF4E7F006002031
:100BC800054B1B78012B06D1044B1B78F92B02D857
:100BD8000133024A13707047E0060020D104002058
:100BE8001E4B1B78012B00D0704710B5FFF7F8FBA0
:100BF80004461B4B1B781BB3013BDBB2184A13702E
:100C08000BBB184B1B780BBBFFF76AFE164A10701C
:100C1800164A52F83030164A1360164A1268934240
:100C280017D0D3F888200132C3F88820124A1368F5
:100C380001331360FFF79DFB2046FFF7D5FB10BD7E
:100C4800FFF7D2FBFBE7FFF7CFFBF8E7FFF7CCFB9B
:100C5800F5E72046FFF7C8FBF1E700BFE0060020F4
:100C6800D1040020E1060020DD040020E00400207B
:100C7800B0070020AC070020B4070020184B1B78F1
:100C8800012B05D1174B1B7813B9174B1B7803B1F0
:100C9800704710B5FFF7A4FB0446FFF721FE134B7E
:100CA8001870134B53F83030124A1360124A126806
:100CB800934210D0D3F888200132C3F888200F4A15
:100CC800136801331360FFF74FFB2046FFF78CFBD7
:100CD800BFF36F8F10BD2046FFF786FBFAE700BF12
:100CE800E0060020D1040020E1060020DD040020F9
:100CF800E0040020B0070020AC070020B407002063
:100D080010B50446104B1B783BB9104B1B78012BD0
:100D180007D045F68963038002E046F662530380F4
:100D280010BD0B4B1B78F92B03D945F2092303801F
:100D3800F6E7FFF755FB064A137801331370FFF700
:100D480053FB00232380EBE7D1040020E0060020BA
:100D5800E106002010B50446154B1B783BB9154B2E
:100D68001B78012B07D045F68963038002E046F61D
:100D78006553038010BD104B1B781BB946F66453AE
:100D88000380F7E7FFF72CFB0B4A1378013BDBB234
:100D9800137033B9FFF728FBFFF770FF0023238098
:100DA800E8E7FFF721FB46F663532380E2E700BF3D
:100DB800D1040020E0060020E106002010B504461A
:100DC800164B1B78012B03D045F68B63038010BDAF
:100DD800134B1B88042B06D9124B1B783BB145F6E5
:100DE8008A630380F3E745F68C630380EFE7FFF738
:100DF80077FD0D4B18700D4B18700D4B53F83030B4
:100E08000C4A13600C4A1360064B01221A70FFF754
:100E18006EFA43F699232380D9E700BFD004002057
:100E2800B8070020E0060020DD040020DC040020D4
:100E3800E0040020B0070020AC07002000B58BB00C
:100E480008900B2307930021069105910491094B03
:100E58001B680393084B1B680293084B1B6801939C
:100E68003F2300930B46064A064800F0BDFE0BB030
:100E78005DF804FBF4360008F0360008EC3600088C
:100E8800AD0B000824040020002303604360704772
:100E980091F833C0036833B153B193F833206245F6
:100EA80006D85B6AF8E74B628B6201604160704765
:100EB8003BB19A6A5AB14B629A6A8A6251629962E4
:100EC80070474B6243688B625962416070474B625E
:100ED8008A62996201607047C36A63B15A68526A4C
:100EE80052B1826A5AB1416A71B151628A62002371
:100EF80043628362C36270475A609A60F7E7426A46
:100F0800002191625A60F2E751629A60EFE770B58A
:100F1800C56A6B685B6A43B104462E1DFFF7DCFFA8
:100F2800E56221463046FFF7B3FF70BD002307E0B6
:100F3800054A002142F8331002EBC3025160013325
:100F48003F2BF5D9704700BFE004002010B50446D8
:100F580001F0DCF90023344A1370344A1370344A20
:100F68001370344A1360344A1360344A1370344A95
:100F78001370344A1370344B1B68344AA2FB0323A2
:100F8800DB08334A1360334B1A6842B1324B1B6893
:100F980003E0013B002142F8041B002BF9D1002398
:100FA8002E4A13602E4A13602E4A13602E4A13608D
:100FB8002E4A13602E4A13602E4A13602E4A13706D
:100FC800FFF782FCFFF7B2FF204600F0EBFF238813
:100FD80003B110BD204600F059FB2388002BF8D13F
:100FE800204600F0A3FD2388002BF2D12046FFF70E
:100FF80025FF2388002BECD1204601F09BF823889D
:10100800002BE6D12046FFF70DFC2388002BE0D10A
:101018002046FFF737FA2388002BDAD100F0C5FF06
:10102800164B01221A70D4E7D1040020E0060020F4
:10103800E1060020AC070020B0070020DC040020F7
:10104800DD040020E806002014370008CDCCCCCC05
:10105800E4060020E4360008E836000850090020BD
:101068005409002058090020480900204C09002094
:101078005C09002060090020BA070020D004002085
:1010880090F833300B4A52F833204AB1C26000223C
:101098000261084A52F83310086142F83300704779
:1010A800C2600261034A42F8330002EBC30358608E
:1010B800704700BFE004002090F833200B4B53F832
:1010C80032304BB10023C360084B03EBC2035A68AC
:1010D8000261D06058607047C3600361034B43F8F6
:1010E800320003EBC2035860704700BFE0040020E1
:1010F80010B5044690F83300FFF704FC94F8332049
:10110800054B1B789A4203D02046FFF7B9FF10BD64
:101118002046FFF7D1FFFAE7DC04002010B50C46A3
:1011280091F83210032917D90639C9B2012915D8FF
:10113800A265A4F85C3010B12046FFF7CDFE94F804
:101148003230072B25D0042384F83230002384F86A
:10115800313084F8303001E0022900D210BDA26598
:10116800A4F85C3010B12046FFF7B6FE94F8323090
:10117800032B0AD02046FFF7BBFF002384F8323048
:1011880084F8313084F83030E8E7204601F092F8EE
:10119800F0E7204601F08EF8D5E7036842689342ED
:1011A80015D0D9688A420AD010B400240C61DC60DA
:1011B8001A61D360016043605DF8044B70471A619F
:1011C8000021D9601161D3600260436070477047A5
:1011D80010B5044690F833100269C36832B1D36081
:1011E800B3B11A6100232361E36010BD2BB1002263
:1011F8001A610A4A42F83130F4E7084B43F83120C3
:1012080003EBC1035A6090F83300FFF78BFBE9E763
:10121800024B03EBC1014A60E4E700BFE004002091
:1012280038B51E4B1B78012B00D038BD0446FFF79C
:10123800D7F805462368E3B1194A93421CD05A6D82
:101248000AB1013A5A655B6DCBB9226863689A4264
:1012580019D0144B1B78D3B92046FFF79EFF23689B
:101268001A6DC2B9104A12685A652846FFF7BCF8C9
:10127800DBE7FFF7B9F8D8E7FFF7B6F8D5E7284670
:10128800FFF7B2F8D1E72846FFF7AEF8CDE72846D2
:10129800FFF7AAF8C9E75A65E7E700BFE8060020A4
:1012A80024040020E1060020E406002010B50446CE
:1012B80031B9022380F832302046FFF789FF10BD8C
:1012C8000A460146034800F07FFF032384F83230C2
:1012D800F2E700BFC407002010B504460B4B18689E
:1012E80080F83010002380F831301146FFF7DEFF18
:1012F80034B1064B1968CC62201DFFF7C9FD10BD3B
:10130800024B1B680022DA62F9E700BFAC07002035
:10131800F8B516460E4B1B7893B90446A0B1FFF7F3
:101328005FF807460B4B23600025E56025612575AE
:10133800201DFFF7A9FD3846FFF756F83580F8BDA0
:1013480042F6E1631380FAE745F6C3531380F6E7E4
:10135800D10400204D555458836BCB60816370478E
:10136800F8B5544B1B785BB906460D461446524BEC
:101378001B78012B09D045F68963069A138003E090
:1013880046F2AE13069A1380F8BD40B162B1B2F5C9
:10139800004F09D045F62563069A1380F4E745F611
:1013A800C353069A1380EFE73268444B9A4204D03D
:1013B80045F6C453069A1380E6E7FFF711F8074687
:1013C800337D3BB330693E490968884231D014F413
:1013D800004F42D13B4B1B78002B46D190F833305D
:1013E80091F833108B4248D82A4604213046FFF73B
:1013F80073FF3846FEF7F8FFFFF740FCFEF7F0FFF3
:101408002F4B1B6893F83130032B4ED8DFE803F0DD
:10141800383E48432A4B18683061012333753146FA
:10142800FFF79AFF3846FEF7DFFF0023069A13807E
:10143800AAE7FF2B09D0013333753846FEF7D4FFEE
:1014480045F28273069A13809EE73846FEF7CCFF72
:1014580045F28473069A138096E73846FEF7C4FF70
:1014680046F2B013069A13808EE73846FEF7BCFFA3
:1014780046F66353069A138086E700F083FCB3E7C9
:101488000023069A1380FEF7AFFF7DE746F2A91303
:10149800069A1380F7E747F2D923069A1380F2E7F2
:1014A80045F6C253069A1380EDE746F62E63069A70
:1014B8001380E8E7D1040020E00600204D55545879
:1014C800AC070020E1060020383001E003F10C00F1
:1014D80003688B42FAD1DB680360704700F1380378
:1014E8003F2000E00C331B6843B15A68002AF9D04A
:1014F80092F833209042F5D91046F3E77047000080
:101508002DE9F04782B01446494B1B784BB9064683
:101518000D46484B1B78012B09D045F6896313808B
:1015280002E046F20E23138002B0BDE8F08738B11E
:1015380051B1B1F5004F07D045F625631380F3E7A5
:1015480045F6C3531380EFE732683B4B9A4203D00A
:1015580045F6C4532380E7E7FEF742FF07463369A1
:10156800364A106883422CD1337D013BDBB2337598
:1015780073BB3146FFF7A8FF736883B32F4BD3F8CB
:10158800009099F833A099F83480C2452FD1D6F845
:101598000480C6F810800123337531464046FFF7B2
:1015A800DBFE00220092134641463046FFF7B6FDA7
:1015B8003846FEF719FF15F4004F36D00023238074
:1015C800B2E73846FEF710FF45F281732380ABE798
:1015D8003846FEF709FF45F283732380A4E7002508
:1015E800356135753846FEF7FFFE25809CE748468D
:1015F800FFF774FF804528BF80465FFA88F8C24528
:10160800C5D24846FFF7E4FDDFF83090D9F800303E
:1016180083F833804046FFF775F9D9F80000FFF7E3
:101628004BFD074B83F80080B1E7FFF727FBC5E7C1
:10163800D1040020E00600204D555458AC07002086
:10164800DC040020F0B583B00646846B03E0002379
:10165800237523613C46B4B1E76821463046FFF75D
:1016680033FF6568002DF2D02661012323752146DA
:101678002846FFF771FE00220092134629462046AD
:10168800FFF74CFDE6E703B0F0BD000070B4164B61
:101698001D685DB1154B1E8866B105F10C0106F198
:1016A800FF3C1FFA8CFC2B4600220FE045F21E730C
:1016B800038016E045F21D73038012E019600024D0
:1016C8005C601C810C330C31013292B26245F5D357
:1016D80000221A605A601A81054B1D609E80DA80CC
:1016E800028070BC704700BFF8360008FC3600085E
:1016F800D404002003464089C0B110B419680C4ACC
:1017080014680C60596811605989B2F806C0ACEBCE
:10171800010CA2F806C0B2F804C06144918000220E
:101728005A811A605A605DF8044B7047704700BFD1
:10173800D404002001810023438103604360704783
:1017480070B50C463B4B1B7843B905463A4B1B78A2
:10175800012B07D045F689630B8070BD47F25513FE
:101768000B80FAE7FEF73CFEA5B1344B1B68AB4291
:1017780010D0FEF739FEFEF733FE0646002323801D
:1017880095F83230072B4ED8DFE803F00A0A0A0A28
:101798001223313FFEF728FE47F257132380DCE778
:1017A800FEF722FE47F253132380FFF767FAD4E7C8
:1017B80095F88230013BDBB285F882301BB13046A8
:1017C800FEF712FEF1E785F832302846FFF790FC65
:1017D800F5E795F88230013BDBB285F8823013B922
:1017E800012385F832303046FEF7FEFDDDE795F837
:1017F8008230013BDBB285F8823013B9022385F8C9
:1018080032303046FEF7F0FDCFE795F88230013BE5
:10181800DBB285F8823013B9032385F832303046BD
:10182800FEF7E2FDC1E7FEF7DFFD46F62D632380F4
:1018380093E700BFD1040020E0060020AC07002099
:101848002DE9F0411D46334C247854B907460E461D
:10185800314B1B78012B0BD045F689632B80002474
:1018680003E046F2AE132B8000242046BDE8F08149
:1018780039B1B1F5004F04D045F625632B8000241B
:10188800F3E7FEF7ADFD8046244B1B685C6CF4B9AA
:1018980016F4004F22D1224B1B782BBB3A46072166
:1018A8000020FFF719FD4046FEF79EFDFFF7E6F919
:1018B800FEF796FD194B1B6893F83130012B20D0A9
:1018C800032B22D0B3B146F62E632B8013E0013CE4
:1018D8005C64FEF789FD00232B80C6E7FEF784FDD4
:1018E80046F2B0132B80C0E7FEF77EFD46F6635341
:1018F8002B80BAE72B80094B1B685C6CFEF774FDE4
:10190800B3E746F2A9132B80F5E747F2D9232B80DA
:10191800F1E700BFD1040020E0060020AC0700205A
:10192800E1060020F0B583B01446354B1B78012B37
:1019380006D045F6896313800024204603B0F0BD25
:1019480006460D4639B1B1F5004F04D045F625637A
:1019580013800024F1E7FEF743FD07465EB100233C
:10196800238096F83230072B41D8DFE803F00707C9
:10197800191907071919234B1E68F0E7736CB3F19F
:10198800FF3F05D05C1C74643846FEF72DFDD4E794
:101998003846FEF729FD46F6C55323800024CCE7D8
:1019A80096F83030072B09D0736CB3F1FF3F16D08F
:1019B8005C1C74643846FEF717FDBEE700200090F3
:1019C800034602463146FFF7A9FB746C3846FEF71A
:1019D8000BFD15F4004FB0D1FFF750F9ADE73846CD
:1019E800FEF702FD46F6C55323800024A5E73846D6
:1019F800FEF7FAFC46F62D63238000249DE700BF1E
:101A0800E0060020AC07002070B50D46424B1B785D
:101A1800BBB90446414B984217D0FEF7E1FC064695
:101A2800BCB13F4B1B68A34220D000232B8094F805
:101A38003230072B68D8DFE803F02437414B55557F
:101A4800555547F25D130B8070BD47F25B130B8051
:101A5800FAE7344B1B78012B02D1314B1C68E0E7C5
:101A6800FEF7C2FC45F689632B80EDE72E4B1B7809
:101A7800002BDAD03046FEF7B7FC46F663532B80CE
:101A8800E2E7042384F83230012384F882302046C8
:101A9800FFF79EFB3046FEF7A7FC224B1B78012B75
:101AA800D2D1FFF7EBF8CFE7052384F832300123D2
:101AB80084F882303046FEF797FCEEE7062384F878
:101AC8003230012384F882303046FEF78DFCE4E79B
:101AD800072384F83230012384F882303046FEF739
:101AE80083FCDAE794F88230FF2B06D0013384F8C0
:101AF80082303046FEF778FCCFE73046FEF774FCBC
:101B080047F260132B809FE73046FEF76DFC46F6E0
:101B18002D632B8098E700BFD10400202404002007
:101B2800AC070020E0060020E10600200023034A5D
:101B38001380034A13600380704700BFB807002072
:101B4800B407002038B50446002505608560456067
:101B5800C560056145618561C56105628565A0F857
:101B68005C5029466030FFF7E5FDE5662567A56707
:101B7800A4F88050E56775B300236364C4F89C300B
:101B8800C4F8A030E36384F88230C4F8A830C4F8FD
:101B9800A430A4F84030A364E36423656365A4F823
:101BA8008430A4F88630C4F88830C4F88C30C4F87F
:101BB8009030C4F894306362A362E36284F83030F2
:101BC80084F8313084F83230402284F8332084F8A5
:101BD8003420A36338BD05F11C0304EB8303002202
:101BE8005A600135EDB2C6E72DE9F04E82B09DF896
:101BF8002890BDF844A05D4D2D78EDB904461646F1
:101C08001F4600B322B30B9B3BB3594B1B680D9A7D
:101C1800934227D80D9B0C9A934228D9B9F13F0FCC
:101C28002AD8B9F13F0F2CD1524B984229D046F20D
:101C38007323129A138003E047F24A13129A13800F
:101C480002B0BDE8F08E47F2AD13129A1380F7E7A1
:101C580047F24F13129A1380F2E746F62F63129A4F
:101C68001380EDE746F63063129A1380E8E746F6EC
:101C78003163129A1380E3E746F27323129A1380B2
:101C8800DEE72046FFF75EFF0023129A13801AF062
:101C9800030F02D01AF0020F4ED10B9B0C9A03EBE4
:101CA800820BCDF804A00D9B00935B460B9A394636
:101CB800304600F067FB0B9B834240D884F8339092
:101CC80084F834902060C4F808B00F9B2365002B7B
:101CD8003AD1294B1B686365109B63600B9B236299
:101CE8000D9BE363A4F840A08DB3BDF8381004F150
:101CF8006000FFF71FFD204600F02CFBFEF770FB8D
:101D0800054694F83300FEF7FDFD2046FFF7D4F9A9
:101D18001A4A138801331380194B1B78012B1FD0E3
:101D28002846FEF761FB8BE7002142F8041B0133CC
:101D38000D998B42F8D3B0E70B9A0023F8E746F6E3
:101D48002C63129A13807BE70F9B6365C4E705F148
:101D58001C0304EB830300225A600135EDB2C3E78C
:101D68002846FEF741FBFEF789FF69E7D10400200A
:101D78001037000824040020E4060020B8070020DB
:101D8800E006002070B504460D4694F8336094F8D8
:101D98003230072B1BD8DFE803F004181B1B181878
:101DA8001B1B2046FFF714FA84F833502846FEF729
:101DB800A9FD204B1B68A34203D02046FFF77CF9FE
:101DC80005E02046FFF75CF901E084F8335070BD68
:101DD80084F8335094F83030042B0BD004D9053BE9
:101DE800DBB2012BF3D801E0012BF0D12046FFF73D
:101DF8008EF8ECE72046FFF78AF8E36A1C69B542DB
:101E080006D294F83330AB42E1D9002CBDD1DEE7DD
:101E180094F83330B342F8D12046FFF75FFB94F8CB
:101E28003450854228BF0546EDB294F83330AB42B2
:101E3800EBD1CCE7AC0700202DE9F0410D464C4B27
:101E48001B7843B904464B4B1B78012B08D045F649
:101E580089630B8002E047F24E130B80BDE8F081E6
:101E6800454B98420DD080B1FEF7BAFA064694F871
:101E78003230072B76D8DFE803F00F3034341230D5
:101E8800343447F24C130B80E8E7FEF7A9FA3B4BD2
:101E98001C68FEF7A9FAE7E72046FFF799F9A36B54
:101EA80013B12046FFF7CEFB04F16000FFF722FCD8
:101EB800204600F057FA324A1388013B1380204627
:101EC800FFF740FEFF2384F8323000232B80304692
:101ED800FEF78AFAFEF7D2FEC0E7204600F0EAF9DC
:101EE800DDE794F83030042B14D00BD8012B0DD03B
:101EF80094F83230072B18BF032BD0D1204600F0BE
:101F0800D9F9CCE7053BDBB2012BF1D82046FEF727
:101F1800E3FFEDE7E36A1F6997F833802046FEF791
:101F2800DBFF97F8333097F83420934203D094F8C6
:101F3800332093420BD0002384F8303097F83330A5
:101F48004345D5D041463846FFF71CFFD0E7384611
:101F5800FFF7C4FA97F83480804528BF80465FFAB7
:101F680088F8E8E7FEF740FA46F62D632B8075E718
:101F7800D1040020E006002024040020AC07002043
:101F8800B807002000B583B0054B186800F0F2F9D7
:101F98000DF106010020FFF74FFF03B05DF804FBC9
:101FA800AC070020002303807047704738B5194BF1
:101FB8001C6864B30546A36C834203D8C51A002382
:101FC800A3640FE01B1AA3640CE0002384F83230EA
:101FD8002046FFF78DF80DE0042384F8323009E03D
:101FE8005B1BA364A36C93B994F83230012BECD03B
:101FF800052BF1D06469074B1C6044B10023A36131
:10200800A36CAB42ECD8ED1A0023A364EAE70020E6
:1020180038BD00BFC007002070B5334B1C68002CCA
:102028005FD00646A36C834203D8C61A0023A36474
:1020380020E01B1AA3641DE0E36A1D6921E0204625
:10204800FFF756F8002384F8323027E0042384F899
:10205800323023E02846FFF795FE6469224B1C6066
:10206800002C3ED00023A361A36CB34236D8F61AE5
:102078000023A364A36CA3BB94F83030042BDBD0FB
:1020880000250023A365A4F85C302046FEF724FF52
:1020980094F83230032BD2D0072BD7D0032384F8FF
:1020A8003130002384F83030002DD6D095F8333005
:1020B80095F834209342D0D094F833209342CCD171
:1020C8002846FFF70BFA95F83410814228BF0146DD
:1020D800C9B295F833308B42BFD0BBE79B1BA364D2
:1020E800C8E7002070BD00BFC407002010B582B04B
:1020F8000023ADF806300DF1060300221146104604
:10210800FFF79EFBBDF80630002BF4D1FEF768F907
:102118000446074A1368013313600120FFF746FF9E
:102128000120FFF779FF2046FEF75EF9E3E700BFDD
:10213800BC07002000231A4A13601A4A13601A4A7F
:1021480013601A4B1A687AB110B58AB0184B1C681C
:10215800184B1B689C420BD3174B1B783E2B0CD992
:1021680047F21123038006E047F2122303807047E9
:1021780047F2132303800AB010BD08900B21079182
:10218800002106910591049103940C48006802907F
:10219800019200930B460A4A0A48FFF725FDEAE731
:1021A800BC070020C0070020C40700201C37000817
:1021B80024370008103700081837000820370008AF
:1021C800F5200008C807002010B4046844B123466D
:1021D8001BB39C6C94420AD2121B1C465B69F7E73E
:1021E8008A6400234B618B61C86101601AE09C69B5
:1021F8004CB18A648C614B61C861986C821A9A648C
:10220800996161610EE08A648C614B61C8619C6C64
:10221800A21A9A649961016004E08A648C614B6136
:10222800C86161615DF8044B7047000038B51F4C08
:102238002468042A0FD0082A18D000221A80012303
:1022480080F83230194B1A68A21A0A440146184815
:10225800FFF7BAFF38BD091B4A1E12F1011FECD95E
:102268000022826447F27E221A80F3E7C26CA4EB54
:10227800020C8C4502D96218C264DEE7A2EB040E98
:102288008E440EF1FF3515F1011F03D81144C164C6
:102298007146D2E7BCFBF1FC0CFB01110A44C26495
:1022A8000022826447F27E221A80D3E7BC0700200E
:1022B800C0070020C1698269436962B1536123B1D3
:1022C8009A61816C9A6C0A449A6400238361436121
:1022D8008364C361704763B130B400229A61846C2F
:1022E8009D6C2C449C640B6042618264C26130BC6A
:1022F80070470B608364C3617047000008B5024BE8
:102308001B6803B1984708BD480900200A4B1A68A2
:102318000A4B1B6803EB8203094A136023F0070387
:1023280013604FF0E023D3F8343F03F04043B3F198
:10233800404F00D0FEE77047E8360008E436000852
:10234800EC15002008B5024B1B6803B1984708BD7F
:102358004C09002008B5024B1B6803B1984708BD1B
:102368005009002008B5024B1B6803B1984708BD07
:102378005409002008B5024B1B6803B1984708BDF3
:102388005809002010B4019C02EB840222F00702D5
:102398004FF0007442F8084C5F4C42F80C4CA4F51E
:1023A800801442F8104CA4F5801442F8144CA4F59B
:1023B800801442F8184CA4F5801442F81C4CA4F57B
:1023C800801442F8204CA4F5801442F8244C4FF0B5
:1023D800824442F8284CA4F5001442F82C4CA4F589
:1023E800001442F8304CA4F5001442F8344C4FF075
:1023F800814442F8384CA4F5800442F83C4C4FF034
:10240800804442F8404C4FF07E5442F8444C00243B
:1024180042F8484C4FF0807442F84C4C42F8500C4B
:102428003E4842F8540C4FF0123042F8580C4FF026
:10243800033042F85C0C4FF0023042F8600C42F86E
:10244800643C42F8681C6FF0120342F86C3C4FF091
:10245800113342F8703C4FF0103342F8743C4FF09F
:10246800093342F8783C4FF0083342F87C3C4FF08F
:10247800073342F8803C4FF0063342F8843C4FF073
:10248800053342F8883C4FF0043342F88C3C244B27
:1024980042F8903CA3F5002342F8943CA3F50023AE
:1024A80042F8983CA3F5002342F89C3CA3F500238E
:1024B80042F8A03CA3F5002342F8A43CA3F500236E
:1024C80042F8A83CA3F5002342F8AC3CA3F500234E
:1024D80042F8B03CA3F5002342F8B43CA3F500232E
:1024E80042F8B83CA3F5002342F8BC3CA3F500230E
:1024F80042F8C03CA3F5002342F8C43CA3F50023EE
:1025080042F8C83C4FF0834342F8CC3CA2F1CC00DF
:102518005DF8044B704700BF000070418D1F000834
:102528000000F84108B5104B1B681868FDF7D0FE8D
:102538000E4B1B6803B198470B4B1B680C4A12687B
:10254800934209D0D3F890104942C3F88C10D3F8BD
:1025580094000144C3F894100023C2F89030106826
:10256800FDF7BFFE08BD00BFAC0700205C090020D6
:10257800B007002008B5024B1B6803B1984708BD97
:102588006009002010B5FDF72BFF0446FEF718FB85
:102598002046FDF729FFFEF7CDFAFEF721FB10BD17
:1025A80001384FF0E0235861D3F8202D22F07F4204
:1025B800C3F8202D1A6942F005021A611A6942F01F
:1025C80002021A617047000008B5034B1B68B0FB94
:1025D800F3F0FFF7E5FF08BD1437000808B54FF022
:1025E800E023D3F8080D002306E050F82310084A2A
:1025F80042F8231001339BB2A52BF6D9FDF7F0FE64
:10260800034A4FF0E023C3F8082DFDF7EDFE08BD9F
:1026180000180020704710B5032000F023FD0F209C
:1026280000F0FCFE10B10124204610BD0446FFF75F
:10263800F1FFF9E7014B1868704700BF981A0020AE
:10264800024A136A43F001031362704700040058FA
:1026580038B50446036813F0010F2AD0894B1B696B
:1026680003F03803102B1BD0864B1B6903F038038B
:10267800182B0FD06368B3F5803F44D0002B5AD194
:10268800804B1A6822F480321A601A6822F4802279
:102698001A603DE07B4B9B6A03F00303022BE9D1F0
:1026A800784B1B6813F4003F03D06368002B00F0DD
:1026B8008A82236813F0020F00F09880714B1B691F
:1026C80013F0380F64D06F4B1B6903F03803182BD5
:1026D80059D0E368002B00F0C1806A490A6822F0EB
:1026E800190213430B60FFF7A5FF0546654B1B68EE
:1026F80013F0040F40F0A280FFF79CFF401B022854
:10270800F4D9032066E25F4A136843F48033136008
:1027180063683BB3FFF78EFF05465A4B1B6813F4FB
:10272800003FC6D1FFF786FF401B41F2883398422D
:10273800F3D903204EE2B3F5A02F09D0514B1A6804
:1027480022F480321A601A6822F480221A60DFE7C5
:102758004C4B1A6842F480221A601A6842F480329C
:102768001A60D5E7FFF766FF0546464B1B6813F46A
:10277800003F9ED0FFF75EFF401B41F2883398422E
:10278800F3D9032026E23F4B9B6A13F0030FA0D135
:102798003C4B1B6813F0040F03D0E368002B00F0D8
:1027A8001482384A136823F01903E1680B43136055
:1027B800FFF740FF0546334B1B6813F0040F06D1A3
:1027C800FFF738FF401B0228F5D9032002E22D4805
:1027D800436823F47C3321694FF47C3292FAA2F2E5
:1027E800B2FA82F201FA02F213434360236813F04B
:1027F800100F67D0234B1B6903F03803082B49D00F
:10280800204B1B6903F03803182B3DD0E369002BDC
:1028180000F083801B4A136843F080031360FFF7BE
:1028280009FF0546174B1B6813F4807F65D1FFF736
:1028380001FF401B0228F5D90320CBE1114843686A
:1028480023F47C3321694FF47C3292FAA2F2B2FA73
:1028580082F201FA02F213434360C7E7094A136898
:1028680023F001031360FFF7E5FE0546054B1B68DF
:1028780013F0040FBAD0FFF7DDFE401B0228F5D98C
:102888000320A7E1004402589C4B9B6A03F0030312
:10289800012BBBD1994B1B6813F4807F03D0E369EC
:1028A800802B40F094819548436823F0F843216ACF
:1028B8004FF0F84292FAA2F2B2FA82F201FA02F268
:1028C80013434360236813F0080F4ED06369002B4D
:1028D80037D08A4A536F43F001035367FFF7AAFEC4
:1028E8000546864B5B6F13F0020F3ED1FFF7A2FE41
:1028F800401B0228F5D903206CE18048436823F087
:10290800F843216A4FF0F84292FAA2F2B2FA82F240
:1029180001FA02F213434360D4E7784A136823F0BC
:1029280080031360FFF786FE0546744B1B6813F49B
:10293800807FC7D0FFF77EFE401B0228F5D9032011
:1029480048E16E4A536F23F001035367FFF772FEA5
:1029580005466A4B5B6F13F0020F06D0FFF76AFE5D
:10296800401B0228F5D9032034E1236813F0200F17
:1029780029D0A3699BB1614A136843F4805313605B
:10298800FFF758FE05465D4B1B6813F4005F1AD12C
:10299800FFF750FE401B0228F5D903201AE1574AD9
:1029A800136823F480531360FFF744FE0546534B26
:1029B8001B6813F4005F06D0FFF73CFE401B02289B
:1029C800F5D9032006E1236813F0040F21D1636AC7
:1029D800002B00F0FE80494A126902F03802182ADA
:1029E80000F0F980022B75D0444A136823F08073F5
:1029F8001360FFF71FFE0446404B1B6813F0007F6F
:102A080000F0DF80FFF716FE001B0228F4D9032030
:102A1800E0E03B4A136843F480731360FFF70AFE53
:102A28000546374B1B6813F4807F06D1FFF702FE7B
:102A3800401B6428F5D90320CCE0A368012B0AD0F9
:102A48000BBB2E4B1A6F22F001021A671A6F22F085
:102A580004021A6704E0294A136F43F0010313675D
:102A6800A36833B3FFF7E6FD0546244B1B6F13F04D
:102A7800020FACD1FFF7DEFD401B41F288339842CC
:102A8800F3D90320A6E0052B09D01C4B1A6F22F0BE
:102A980001021A671A6F22F004021A67E0E7174B5F
:102AA8001A6F42F004021A671A6F42F001021A679D
:102AB800D6E7FFF7BFFD0546104B1B6F13F0020F5B
:102AC80085D0FFF7B7FD401B41F288339842F3D910
:102AD80003207FE0094A136823F080731360FFF72F
:102AE800A9FD0546054B1B6813F0007F0AD0FFF7C8
:102AF800A1FD401B0228F5D903206BE000440258D1
:102B080000480258354B996A354A0A40A16AE06A7A
:102B180041EA00110A439A62226B013AC2F30802A1
:102B2800616B0139490289B20A43A16B0139090471
:102B380001F4FE010A43E16B0139090601F0FE4187
:102B48000A431A63596B274A0A40A06C4FF6F8717A
:102B580091FAA1F1B1FA81F100FA01F10A435A633D
:102B6800DA6A22F00C02216C0A43DA62DA6A22F08D
:102B78000202616C0A43DA62DA6A42F48032DA628B
:102B8800DA6A42F40032DA62DA6A42F48022DA62FD
:102B9800DA6A42F00102DA621A6842F080721A6058
:102BA800FFF748FD04460D4B1B6813F0007F06D164
:102BB800FFF740FD001B0228F5D903200AE000209A
:102BC80008E0002006E0012004E0012002E00120E6
:102BD80000E0002038BD0120FCE700BF0044025897
:102BE8000CFCFFFF0700FFFF6C4B1B6903F0380369
:102BF800102B00F0CF80182B0FD00BB1684870470E
:102C0800664B1B6813F0200F00F0C680634B1B68EF
:102C1800C3F3C1036348D840704700B55F498A6A67
:102C280002F00302886AC0F3051ECB6A03F0010CA8
:102C38004B6BC3F3CC030CFB03F307EE903AF8EEAF
:102C4800677A012A5ED0022A00F08880DAB1544BF4
:102C5800B3FBFEF307EE103AB8EE477A4F4B1B6B07
:102C6800C3F30803DFED506A67EEA67A06EE903AE2
:102C7800F8EE666A76EEA77AF7EE006A77EEA67A3D
:102C880027EE277A59E00B6813F0200F1ED00B6847
:102C9800C3F3C1034348D840B0FBFEF307EE103A34
:102CA800B8EE477A0B6BC3F30803DFED3F6A67EEB4
:102CB800A67A06EE903AF8EE666A76EEA77AF7EE0E
:102CC800006A77EEA67A27EE277A36E03548B0FB19
:102CD800FEF307EE103AB8EE477A304B1B6BC3F39E
:102CE8000803DFED316A67EEA67A06EE903AF8EE51
:102CF800666A76EEA77AF7EE006A77EEA67A27EE8E
:102D0800277A1AE02649B1FBFEF307EE103AB8EE2F
:102D1800477A224B1B6BC3F30803DFED236A67EE88
:102D2800A67A06EE903AF8EE666A76EEA77AF7EE9D
:102D3800006A77EEA67A27EE277A184B1B6BC3F347
:102D48004623013307EE903AF8EE676AC7EE267A13
:102D5800FCEEE77A17EE900A5DF804FB134AB2FB23
:102D6800FEF307EE103AB8EE477A0C4B1B6BC3F331
:102D78000803DFED0D6A67EEA67A06EE903AF8EEE4
:102D8800666A76EEA77AF7EE006A77EEA67A27EEFD
:102D9800277AD2E70548704702487047004402582E
:102DA80000093D000090D0030000003900127A00AD
:102DB80070B504460D46774B1B6803F007038B423A
:102DC8000BD2744A136823F007030B43136013688C
:102DD80003F007038B4240F0D680236813F0020FFC
:102DE80006D06D4A936923F00F03E1680B439361A2
:102DF800236813F0010F72D0674A936923F4706354
:102E0800A1680B4393616368022B0AD0032B2BD074
:102E1800012B30D0604A126812F0040F06D101204D
:102E2800B0E0126812F4003F00F0AF805A490A6916
:102E380022F0070213430B61FFF7FCFB06466368A9
:102E4800022B1FD0032B2CD0012B39D0524B1B69DE
:102E580013F0380F43D0FFF7EDFB801B41F28833A6
:102E68009842F3D903208DE04B4A126812F0007F94
:102E7800DCD1012086E0484A126812F4807FD5D15F
:102E880001207FE0444B1B6903F03803102B26D048
:102E9800FFF7D0FB831B41F288329342F2D903201B
:102EA80070E03D4B1B6903F03803182B17D0FFF770
:102EB800C1FB801B41F288339842F2D9032061E0BC
:102EC800354B1B6903F03803082B08D0FFF7B2FB1A
:102ED800801B41F288339842F2D9032052E02D4BEF
:102EE8001B6803F00703AB420AD92A4A136823F088
:102EF80007032B431360136803F00703AB4246D163
:102F0800236813F0040F06D0234A936923F0700353
:102F180021690B439361236813F0080F06D01E4AFA
:102F2800D36923F0700361690B43D361236813F0FD
:102F3800100F06D0184AD36923F4E063A1690B4344
:102F4800D361236813F0200F06D0134A136A23F0C5
:102F58007003E1690B431362FFF746FE0E4B9B6952
:102F680003F470634FF4807292FAA2F2B2FA82F21A
:102F7800D3400A4AD35CD840094B18600F2000F0B0
:102F88004DFA002070BD0120FCE70120FAE701207E
:102F9800F8E700BF00200052004402583C37000800
:102FA8000000002008B500F043F8084B9B6903F0C7
:102FB8000F03012292FAA2F2B2FA82F2D340044A33
:102FC800D35CD840034B186008BD00BF00440258CA
:102FD8003C3700080400002008B5FFF7E3FF074B63
:102FE800DB6903F07003102292FAA2F2B2FA82F2BD
:102FF800D340034AD35CD84008BD00BF0044025800
:103008003C37000808B5FFF7CDFF074BDB6903F431
:10301800E0634FF4807292FAA2F2B2FA82F2D340DD
:10302800024AD35CD84008BD004402583C37000827
:1030380008B5FFF7D9FD084B9B6903F470634FF49B
:10304800807292FAA2F2B2FA82F2D340034AD35CB7
:10305800D840034B186008BD004402583C370008AC
:10306800000000200649CB6823F4E0631B041B0C16
:10307800000200F4E0600343024A1A43CA60704742
:1030880000ED00E00000FA0500230F2B00F2EE80AF
:10309800F0B583B043E0092200E00022AA403243A1
:1030A8000234734D45F824204FF0B042D2F88040E6
:1030B8006FEA0C0224EA0C054E6816F4803F01D032
:1030C8004CEA04054FF0B044C4F88050D4F884406A
:1030D80002EA04054E6816F4003F01D04CEA0405E4
:1030E8004FF0B044C4F88450246802EA04054E68DE
:1030F80016F4801F01D04CEA04054FF0B044256057
:10310800646822404D6815F4001F01D04CEA04029F
:103118004FF0B044626001330F2B00F2A58001220A
:103128009A400C6804EA020C32EA0404F3D14C68B1
:10313800122C18BF022C10D1DD08083550F8257064
:1031480003F00704A6000F24B44027EA040E0C6914
:10315800B44044EA0E0440F8254006684FEA430E9E
:10316800032404FA0EF4E54326EA04064C6804F046
:10317800030404FA0EF4344304604C68661E112CF0
:1031880018BF012E01D9122C0FD186682E40CC68A9
:1031980004FA0EF434438460446824EA02024C685A
:1031A800C4F300149C4014434460C26815408A6804
:1031B80002FA0EF22A43C2604A6812F0805FAAD06F
:1031C8002C4AD2F8F44044F00204C2F8F440D2F891
:1031D800F42002F002020192019A9C08A51C244ADC
:1031E80052F8256003F0030295000F22AA4026EA50
:1031F8000206214A90423FF450AF02F580629042A5
:1032080022D002F58062904220D002F5806290427E
:103218001ED002F5806290421CD002F58062904276
:103228001AD002F58062904218D002F5806290426E
:1032380016D002F58062904214D002F58062904266
:103248003FF429AF0A2229E7012227E7022225E7CE
:10325800032223E7042221E705221FE706221DE7B0
:1032680007221BE7082219E703B0F0BD704700BF2B
:1032780000040058004402580000025843695940AD
:103288004161704710B41649D1F8883043F470038F
:10329800C1F88830134B1A6842F001021A60002204
:1032A8001A611C681048204018609A61DA611A6235
:1032B8009A62DA621A635A639A63DA631A645A641E
:1032C800186820F4802018601A66084B0122C3F899
:1032D80008214FF000638B605DF8044B704700BF16
:1032E80000ED00E0004402587FEDF6EA008000514E
:1032F80000B59FB02D4BDA6822F00402DA60002294
:1033080001929A6942F440429A619B6903F44043EE
:103318000193019B254B9B6913F4005FFAD00123AD
:1033280003934FF4A0230493002206920A920223E7
:103338000C930D9304210E914FF4C8700F901093C5
:103348001293119114920823139303A8FFF780F99D
:1033580000B1FEE73F231693032317930023189326
:103368000823199340231A931B934FF480621C92ED
:103378001D93042116A8FFF71BFD00B1FEE70C4BB7
:103388001A6842F080021A60D3F8F42042F0020270
:10339800C3F8F420D3F8F43003F002030293029B3D
:1033A800FFF74EF91FB05DF804FB00BF0048025854
:1033B8000044025808B503280FD8DFE800F00205DA
:1033C800080BFFF711FC08BDFFF7ECFDFBE7FFF763
:1033D80003FEF8E7FFF716FEF5E70020F3E74FF0E6
:1033E800E022136943F00303136170474FF0E022B2
:1033F800136923F003031361704738B50020FFF702
:10340800D9FF0546FCF7ECFF04462846FFF7DCF831
:10341800FFF7ECFF2046FCF7E7FF38BD00207047B8
:1034280008B5104BD3F8B43F13F0010F06D013F0D2
:10343800020F03D00B4B0C4AC3F8B02F0020FFF744
:10344800B9FF4FF0E022D2F8FC3D43F08073C2F898
:10345800FC3DA2F55042136843F001031360FCF7EA
:10346800E3FF08BD001000E055CEACC500B587B03D
:103478000E4BD3F8E02042F00202C3F8E020D3F864
:10348800E03003F002030093009B44F281030193B0
:1034980001230293002303930223049301A9044800
:1034A800FFF7F2FD07B05DF804FB00BF00440258C7
:1034B8000004025808B5032808D8DFE800F0080D12
:1034C800120244F281010A48FFF7D8FE08BD012123
:1034D8000748FFF7D3FEF9E780210548FFF7CEFE3E
:1034E800F4E74FF480410248FFF7C8FEEEE700BF5B
:1034F800000402587047704770477047704770471C
:103508007047000008B5FCF76BFF0C4B0C4A1A60BB
:103518000C4B0D4A1A600D4B0D4A1A600D4B0E4AA2
:103528001A600E4B0E4A1A600E4B0F4A1A600F4B68
:103538000F4A1A60FCF758FF08BD00BF4809002071
:10354800FD3400084C090020FF3400085009002011
:1035580001350008540900200335000858090020E7
:10356800053500085C0900200735000860090020BF
:103578000935000800B585B0FFF731FFFFF776FF82
:103588000DF10E00FDF7E8F80120FFF793FF0DF1AC
:103598000E03019300200090034601220146FDF727
:1035A80021FAF1E700B58DB0FFF735F8FFF7A0FE77
:1035B800FFF714F8FFF721FFFCF73CFFFCF70CFFBF
:1035C800FCF72EFF0DF12E00FDF7C0FCBDF82E30E4
:1035D80003B1FEE7FFF796FF0DF12E0308930322D0
:1035E800079200230693059304934FF48071039187
:1035F8000949486E029001910092084A0849094811
:10360800FEF7F2FABDF82E3003B1FEE70DF12E00F9
:10361800FDF7D4FBFEE700BF9C1A00207D350008AB
:103628004C3700089C1E0020DFF834D0002103E04E
:103638000C4B5B58435004310B480C4B42189A42D0
:10364800F6D30B4A02E0002342F8043B094B9A42A6
:10365800F9D3FFF717FE00F011F8FFF7A3FF704743
:103668000000022064370008000000200800002045
:1036780000040020481F0020FEE7000070B50D4D33
:103688000D4C641BA4100026A64209D10B4D0C4C0E
:1036980000F018F8641BA4100026A64205D170BDDE
:1036A80055F8043B98470136EEE755F8043B984730
:1036B8000136F2E75C3700085C3700085C37000821
:1036C80060370008F8B500BFF8BC08BC9E467047D4
:0C36D800F8B500BFF8BC08BC9E46704767
:1036E4006C090020000100006C0D002006000000A1
:1036F400400000006C0E002020003E000A00000084
:10370400EC0F00200C0000008000000040000000CE
:10371400E803000001000000EC1100200C00000090
:10372400800000003D00000001000000EC130020B8
:103734000C000000800000000000000001020304EF
:10374400010203040607080953746172747570203A
:083754005461736B00000000DA
:04375C00BD020008A2
:0437600099020008C2
:083764000090D0030090D00397
:040000050800363188
:00000001FF
